{
  "_format": "hh-sol-artifact-1",
  "contractName": "Market",
  "sourceName": "contracts/Market.sol",
  "abi": [
    {
      "inputs": [],
      "stateMutability": "nonpayable",
      "type": "constructor"
    },
    {
      "anonymous": false,
      "inputs": [
        {
          "indexed": false,
          "internalType": "uint8",
          "name": "version",
          "type": "uint8"
        }
      ],
      "name": "Initialized",
      "type": "event"
    },
    {
      "anonymous": false,
      "inputs": [
        {
          "indexed": true,
          "internalType": "address",
          "name": "previousOwner",
          "type": "address"
        },
        {
          "indexed": true,
          "internalType": "address",
          "name": "newOwner",
          "type": "address"
        }
      ],
      "name": "OwnershipTransferred",
      "type": "event"
    },
    {
      "inputs": [
        {
          "internalType": "string",
          "name": "name",
          "type": "string"
        }
      ],
      "name": "addCategory",
      "outputs": [],
      "stateMutability": "nonpayable",
      "type": "function"
    },
    {
      "inputs": [
        {
          "internalType": "uint256",
          "name": "listId",
          "type": "uint256"
        },
        {
          "internalType": "uint256",
          "name": "amount",
          "type": "uint256"
        },
        {
          "internalType": "bytes",
          "name": "data",
          "type": "bytes"
        }
      ],
      "name": "buyMaterialNft",
      "outputs": [],
      "stateMutability": "nonpayable",
      "type": "function"
    },
    {
      "inputs": [
        {
          "internalType": "uint256",
          "name": "nftId",
          "type": "uint256"
        }
      ],
      "name": "buyNft",
      "outputs": [],
      "stateMutability": "nonpayable",
      "type": "function"
    },
    {
      "inputs": [
        {
          "internalType": "uint256",
          "name": "listId",
          "type": "uint256"
        }
      ],
      "name": "buyPreMintNft",
      "outputs": [],
      "stateMutability": "nonpayable",
      "type": "function"
    },
    {
      "inputs": [
        {
          "internalType": "uint256",
          "name": "nftId",
          "type": "uint256"
        }
      ],
      "name": "cancelSellNft",
      "outputs": [],
      "stateMutability": "nonpayable",
      "type": "function"
    },
    {
      "inputs": [
        {
          "internalType": "string",
          "name": "uuid",
          "type": "string"
        },
        {
          "internalType": "uint64",
          "name": "price",
          "type": "uint64"
        },
        {
          "internalType": "bool",
          "name": "isRentalAble",
          "type": "bool"
        },
        {
          "internalType": "uint256",
          "name": "category",
          "type": "uint256"
        }
      ],
      "name": "createNft",
      "outputs": [],
      "stateMutability": "nonpayable",
      "type": "function"
    },
    {
      "inputs": [],
      "name": "getCategory",
      "outputs": [
        {
          "components": [
            {
              "internalType": "string",
              "name": "name",
              "type": "string"
            },
            {
              "internalType": "uint64",
              "name": "totalPremintNFt",
              "type": "uint64"
            },
            {
              "internalType": "uint64",
              "name": "totalNft",
              "type": "uint64"
            }
          ],
          "internalType": "struct ListCategory[]",
          "name": "",
          "type": "tuple[]"
        }
      ],
      "stateMutability": "view",
      "type": "function"
    },
    {
      "inputs": [
        {
          "internalType": "uint256",
          "name": "categoryId",
          "type": "uint256"
        }
      ],
      "name": "getCategoryById",
      "outputs": [
        {
          "components": [
            {
              "internalType": "string",
              "name": "name",
              "type": "string"
            },
            {
              "internalType": "uint64",
              "name": "totalPremintNFt",
              "type": "uint64"
            },
            {
              "internalType": "uint64",
              "name": "totalNft",
              "type": "uint64"
            }
          ],
          "internalType": "struct ListCategory",
          "name": "",
          "type": "tuple"
        }
      ],
      "stateMutability": "view",
      "type": "function"
    },
    {
      "inputs": [],
      "name": "getListedMaterialSales",
      "outputs": [
        {
          "components": [
            {
              "internalType": "string",
              "name": "uuid",
              "type": "string"
            },
            {
              "internalType": "uint256",
              "name": "price",
              "type": "uint256"
            },
            {
              "internalType": "uint256",
              "name": "maxMint",
              "type": "uint256"
            }
          ],
          "internalType": "struct ListMaterialNft[]",
          "name": "",
          "type": "tuple[]"
        }
      ],
      "stateMutability": "view",
      "type": "function"
    },
    {
      "inputs": [],
      "name": "getListedNftSales",
      "outputs": [
        {
          "components": [
            {
              "internalType": "uint256",
              "name": "nftId",
              "type": "uint256"
            },
            {
              "internalType": "address",
              "name": "owner",
              "type": "address"
            },
            {
              "internalType": "uint256",
              "name": "price",
              "type": "uint256"
            },
            {
              "internalType": "string",
              "name": "uuid",
              "type": "string"
            },
            {
              "internalType": "uint256",
              "name": "category",
              "type": "uint256"
            }
          ],
          "internalType": "struct ListNft[]",
          "name": "",
          "type": "tuple[]"
        }
      ],
      "stateMutability": "view",
      "type": "function"
    },
    {
      "inputs": [
        {
          "internalType": "uint256",
          "name": "category",
          "type": "uint256"
        }
      ],
      "name": "getListedNftSalesByCategory",
      "outputs": [
        {
          "components": [
            {
              "internalType": "uint256",
              "name": "nftId",
              "type": "uint256"
            },
            {
              "internalType": "address",
              "name": "owner",
              "type": "address"
            },
            {
              "internalType": "uint256",
              "name": "price",
              "type": "uint256"
            },
            {
              "internalType": "string",
              "name": "uuid",
              "type": "string"
            },
            {
              "internalType": "uint256",
              "name": "category",
              "type": "uint256"
            }
          ],
          "internalType": "struct ListNft[]",
          "name": "",
          "type": "tuple[]"
        }
      ],
      "stateMutability": "view",
      "type": "function"
    },
    {
      "inputs": [],
      "name": "getListedPreMintNftSales",
      "outputs": [
        {
          "components": [
            {
              "internalType": "string",
              "name": "uuid",
              "type": "string"
            },
            {
              "internalType": "uint256",
              "name": "price",
              "type": "uint256"
            },
            {
              "internalType": "bool",
              "name": "isRentalAble",
              "type": "bool"
            },
            {
              "internalType": "uint256",
              "name": "rentId",
              "type": "uint256"
            },
            {
              "internalType": "bool",
              "name": "isSold",
              "type": "bool"
            },
            {
              "internalType": "uint256",
              "name": "category",
              "type": "uint256"
            }
          ],
          "internalType": "struct ListPreMintNft[]",
          "name": "",
          "type": "tuple[]"
        }
      ],
      "stateMutability": "view",
      "type": "function"
    },
    {
      "inputs": [
        {
          "internalType": "uint256",
          "name": "category",
          "type": "uint256"
        }
      ],
      "name": "getListedPreMintNftSalesByCategory",
      "outputs": [
        {
          "components": [
            {
              "internalType": "string",
              "name": "uuid",
              "type": "string"
            },
            {
              "internalType": "uint256",
              "name": "price",
              "type": "uint256"
            },
            {
              "internalType": "bool",
              "name": "isRentalAble",
              "type": "bool"
            },
            {
              "internalType": "uint256",
              "name": "rentId",
              "type": "uint256"
            },
            {
              "internalType": "bool",
              "name": "isSold",
              "type": "bool"
            },
            {
              "internalType": "uint256",
              "name": "category",
              "type": "uint256"
            }
          ],
          "internalType": "struct ListPreMintNft[]",
          "name": "",
          "type": "tuple[]"
        }
      ],
      "stateMutability": "view",
      "type": "function"
    },
    {
      "inputs": [
        {
          "internalType": "uint256",
          "name": "nftId",
          "type": "uint256"
        }
      ],
      "name": "getNftSales",
      "outputs": [
        {
          "components": [
            {
              "internalType": "uint256",
              "name": "nftId",
              "type": "uint256"
            },
            {
              "internalType": "address",
              "name": "owner",
              "type": "address"
            },
            {
              "internalType": "uint256",
              "name": "price",
              "type": "uint256"
            },
            {
              "internalType": "string",
              "name": "uuid",
              "type": "string"
            },
            {
              "internalType": "uint256",
              "name": "category",
              "type": "uint256"
            }
          ],
          "internalType": "struct ListNft",
          "name": "",
          "type": "tuple"
        }
      ],
      "stateMutability": "view",
      "type": "function"
    },
    {
      "inputs": [
        {
          "internalType": "uint256",
          "name": "listId",
          "type": "uint256"
        }
      ],
      "name": "getPreMintNftSales",
      "outputs": [
        {
          "components": [
            {
              "internalType": "string",
              "name": "uuid",
              "type": "string"
            },
            {
              "internalType": "uint256",
              "name": "price",
              "type": "uint256"
            },
            {
              "internalType": "bool",
              "name": "isRentalAble",
              "type": "bool"
            },
            {
              "internalType": "uint256",
              "name": "rentId",
              "type": "uint256"
            },
            {
              "internalType": "bool",
              "name": "isSold",
              "type": "bool"
            },
            {
              "internalType": "uint256",
              "name": "category",
              "type": "uint256"
            }
          ],
          "internalType": "struct ListPreMintNft",
          "name": "",
          "type": "tuple"
        }
      ],
      "stateMutability": "view",
      "type": "function"
    },
    {
      "inputs": [
        {
          "internalType": "address",
          "name": "_adminAddress",
          "type": "address"
        },
        {
          "internalType": "contract Xpc",
          "name": "_xpc",
          "type": "address"
        },
        {
          "internalType": "contract MNFT",
          "name": "_mnft",
          "type": "address"
        },
        {
          "internalType": "contract MaterialNFT",
          "name": "_materialNft",
          "type": "address"
        }
      ],
      "name": "initialize",
      "outputs": [],
      "stateMutability": "nonpayable",
      "type": "function"
    },
    {
      "inputs": [
        {
          "internalType": "string",
          "name": "uuid",
          "type": "string"
        },
        {
          "internalType": "uint64",
          "name": "price",
          "type": "uint64"
        },
        {
          "internalType": "uint256",
          "name": "maxMint",
          "type": "uint256"
        }
      ],
      "name": "listingMaterialNft",
      "outputs": [],
      "stateMutability": "nonpayable",
      "type": "function"
    },
    {
      "inputs": [
        {
          "internalType": "string",
          "name": "uuid",
          "type": "string"
        },
        {
          "internalType": "uint64",
          "name": "price",
          "type": "uint64"
        },
        {
          "internalType": "bool",
          "name": "isRentalAble",
          "type": "bool"
        },
        {
          "internalType": "uint256",
          "name": "category",
          "type": "uint256"
        }
      ],
      "name": "listingNft",
      "outputs": [],
      "stateMutability": "nonpayable",
      "type": "function"
    },
    {
      "inputs": [],
      "name": "materialNft",
      "outputs": [
        {
          "internalType": "contract MaterialNFT",
          "name": "",
          "type": "address"
        }
      ],
      "stateMutability": "view",
      "type": "function"
    },
    {
      "inputs": [],
      "name": "mnft",
      "outputs": [
        {
          "internalType": "contract MNFT",
          "name": "",
          "type": "address"
        }
      ],
      "stateMutability": "view",
      "type": "function"
    },
    {
      "inputs": [
        {
          "internalType": "address",
          "name": "operator",
          "type": "address"
        },
        {
          "internalType": "address",
          "name": "from",
          "type": "address"
        },
        {
          "internalType": "uint256",
          "name": "tokenId",
          "type": "uint256"
        },
        {
          "internalType": "bytes",
          "name": "data",
          "type": "bytes"
        }
      ],
      "name": "onERC721Received",
      "outputs": [
        {
          "internalType": "bytes4",
          "name": "",
          "type": "bytes4"
        }
      ],
      "stateMutability": "pure",
      "type": "function"
    },
    {
      "inputs": [],
      "name": "owner",
      "outputs": [
        {
          "internalType": "address",
          "name": "",
          "type": "address"
        }
      ],
      "stateMutability": "view",
      "type": "function"
    },
    {
      "inputs": [],
      "name": "renounceOwnership",
      "outputs": [],
      "stateMutability": "nonpayable",
      "type": "function"
    },
    {
      "inputs": [
        {
          "internalType": "uint256",
          "name": "nftId",
          "type": "uint256"
        },
        {
          "internalType": "uint256",
          "name": "price",
          "type": "uint256"
        }
      ],
      "name": "sellNft",
      "outputs": [],
      "stateMutability": "nonpayable",
      "type": "function"
    },
    {
      "inputs": [],
      "name": "totalCategory",
      "outputs": [
        {
          "internalType": "uint256",
          "name": "",
          "type": "uint256"
        }
      ],
      "stateMutability": "view",
      "type": "function"
    },
    {
      "inputs": [],
      "name": "totalMaterialNftSales",
      "outputs": [
        {
          "internalType": "uint256",
          "name": "",
          "type": "uint256"
        }
      ],
      "stateMutability": "view",
      "type": "function"
    },
    {
      "inputs": [],
      "name": "totalNftSales",
      "outputs": [
        {
          "internalType": "uint256",
          "name": "",
          "type": "uint256"
        }
      ],
      "stateMutability": "view",
      "type": "function"
    },
    {
      "inputs": [],
      "name": "totalPreMintNftales",
      "outputs": [
        {
          "internalType": "uint256",
          "name": "",
          "type": "uint256"
        }
      ],
      "stateMutability": "view",
      "type": "function"
    },
    {
      "inputs": [
        {
          "internalType": "address",
          "name": "newOwner",
          "type": "address"
        }
      ],
      "name": "transferOwnership",
      "outputs": [],
      "stateMutability": "nonpayable",
      "type": "function"
    },
    {
      "inputs": [
        {
          "internalType": "uint256",
          "name": "_listId",
          "type": "uint256"
        }
      ],
      "name": "unlistPreMintNft",
      "outputs": [],
      "stateMutability": "nonpayable",
      "type": "function"
    },
    {
      "inputs": [
        {
          "internalType": "uint256",
          "name": "_nftId",
          "type": "uint256"
        },
        {
          "internalType": "string",
          "name": "_uuid",
          "type": "string"
        },
        {
          "internalType": "uint64",
          "name": "_price",
          "type": "uint64"
        },
        {
          "internalType": "uint256",
          "name": "_maxMint",
          "type": "uint256"
        },
        {
          "internalType": "uint256",
          "name": "_category",
          "type": "uint256"
        }
      ],
      "name": "updateMaterialNftSales",
      "outputs": [],
      "stateMutability": "nonpayable",
      "type": "function"
    },
    {
      "inputs": [
        {
          "internalType": "uint256",
          "name": "_nftId",
          "type": "uint256"
        },
        {
          "internalType": "string",
          "name": "_uuid",
          "type": "string"
        },
        {
          "internalType": "uint64",
          "name": "_price",
          "type": "uint64"
        },
        {
          "internalType": "uint256",
          "name": "_category",
          "type": "uint256"
        }
      ],
      "name": "updateNftSales",
      "outputs": [],
      "stateMutability": "nonpayable",
      "type": "function"
    },
    {
      "inputs": [
        {
          "internalType": "uint256",
          "name": "_listId",
          "type": "uint256"
        },
        {
          "internalType": "string",
          "name": "_uuid",
          "type": "string"
        },
        {
          "internalType": "uint64",
          "name": "_price",
          "type": "uint64"
        },
        {
          "internalType": "bool",
          "name": "_isRentalAble",
          "type": "bool"
        },
        {
          "internalType": "uint256",
          "name": "_category",
          "type": "uint256"
        }
      ],
      "name": "updatePreMintNftSales",
      "outputs": [],
      "stateMutability": "nonpayable",
      "type": "function"
    },
    {
      "inputs": [],
      "name": "xpc",
      "outputs": [
        {
          "internalType": "contract Xpc",
          "name": "",
          "type": "address"
        }
      ],
      "stateMutability": "view",
      "type": "function"
    }
  ],
  "bytecode": "0x60806040523480156200001157600080fd5b506200001c62000022565b620000e3565b600054610100900460ff16156200008f5760405162461bcd60e51b815260206004820152602760248201527f496e697469616c697a61626c653a20636f6e747261637420697320696e697469604482015266616c697a696e6760c81b606482015260840160405180910390fd5b60005460ff90811614620000e1576000805460ff191660ff9081179091556040519081527f7f26b83ff96e1f2b6a682f133852f6798a09c465da95921460cefb38474024989060200160405180910390a15b565b61372980620000f36000396000f3fe608060405234801561001057600080fd5b50600436106101965760003560e01c806301e39b3d1461019b57806304361b93146101b057806306aa9e9f146101e057806307f8ab2214610200578063150b7a0214610216578063243adbdd1461024e5780632e0dcbf7146102615780632f5369171461027457806340736f50146102875780634c8bdea7146102a75780635208eb09146102ba57806352653b3f146102cd57806359f48271146102d557806360e93f3c146102e85780636fdf56c714610308578063715018a6146103285780637e1d42241461033057806380258e471461033857806380312bf81461034d578063871798ba146103605780638a2da276146103735780638da5cb5b146103865780639c18cb2a1461038e578063a83272e6146103a3578063a9a55a02146103b6578063af8ec74a146103d6578063b0a49ccb146103de578063c96c6408146103f1578063c9ac7306146103f9578063d071ea261461040c578063f04a471a1461041f578063f2fde38b14610432578063f8c8765e14610445578063fae9346514610458575b600080fd5b6101ae6101a9366004612879565b610460565b005b606e546101c3906001600160a01b031681565b6040516001600160a01b0390911681526020015b60405180910390f35b6101f36101ee3660046128e2565b6105b4565b6040516101d791906129a2565b6102086107fb565b6040519081526020016101d7565b610235610224366004612a19565b630a85bd0160e11b95945050505050565b6040516001600160e01b031990911681526020016101d7565b6101ae61025c3660046128e2565b61080b565b6101ae61026f366004612ab7565b6109aa565b6101ae610282366004612af3565b610a28565b61029a6102953660046128e2565b610acf565b6040516101d79190612bb5565b6101ae6102b5366004612bc8565b610bc1565b6101ae6102c8366004612c2b565b610cc8565b610208611076565b6101ae6102e33660046128e2565b611081565b6102fb6102f63660046128e2565b6111a0565b6040516101d79190612c8f565b61031b6103163660046128e2565b61127d565b6040516101d79190612ca2565b6101ae611372565b6101f3611386565b610340611568565b6040516101d79190612cb5565b6101ae61035b366004612d0a565b611728565b6101ae61036e366004612879565b6117bb565b6070546101c3906001600160a01b031681565b6101c3611967565b610396611976565b6040516101d79190612d74565b6101ae6103b1366004612df5565b611b23565b6103c96103c43660046128e2565b611bcd565b6040516101d79190612e4e565b610208611e0a565b6101ae6103ec3660046128e2565b611e15565b6103c9611ef1565b606f546101c3906001600160a01b031681565b6101ae61041a3660046128e2565b6120c3565b6101ae61042d366004612ea3565b612216565b6101ae610440366004612ef3565b612314565b6101ae610453366004612f10565b61238d565b6102086124eb565b8061046a60655490565b10156104915760405162461bcd60e51b815260040161048890612f6c565b60405180910390fd5b610499612656565b848152606f546040805163313ce56760e01b815290516001600160a01b039092169163313ce567916004808201926020929091908290030181865afa1580156104e6573d6000803e3d6000fd5b505050506040513d601f19601f8201168201806040525081019061050a9190612f98565b61051590600a6130b7565b610528906001600160401b0386166130c6565b602082015282158015604083015260a0820183905261054957600060608201525b606e5460405163f9fda97760e01b81526001600160a01b039091169063f9fda9779061057b90849033906004016130dd565b600060405180830381600087803b15801561059557600080fd5b505af11580156105a9573d6000803e3d6000fd5b505050505050505050565b60608160016105c260655490565b6105cc9190613107565b10156105ea5760405162461bcd60e51b815260040161048890612f6c565b6000828152606d60205260408120600101546001600160401b039081169190829081111561061a5761061a61275c565b60405190808252806020026020018201604052801561065357816020015b610640612656565b8152602001906001900390816106385790505b5090508160000361069857604080516000808252602082019092529061068f565b61067c612656565b8152602001906001900390816106745790505b50949350505050565b6000805b6066548160ff1610156107f15760ff81166000908152606a60205260409020600501548690036107df5760ff81166000908152606a602052604090819020815160c081019092528054829082906106f29061311a565b80601f016020809104026020016040519081016040528092919081815260200182805461071e9061311a565b801561076b5780601f106107405761010080835404028352916020019161076b565b820191906000526020600020905b81548152906001019060200180831161074e57829003601f168201915b505050918352505060018201546020820152600282015460ff90811615156040830152600383015460608301526004830154161515608082015260059091015460a09091015283518490849081106107c5576107c5613154565b602002602001018190525081806107db9061316a565b9250505b806107e981613183565b91505061069c565b5090949350505050565b600061080660655490565b905090565b6000818152606c602052604090819020606f546001820154600283015493516323b872dd60e01b815292936001600160a01b03928316936323b872dd936108599333939116916004016131a2565b6020604051808303816000875af1158015610878573d6000803e3d6000fd5b505050506040513d601f19601f8201168201806040525081019061089c91906131d6565b50606e546040516315eaef6b60e01b81526001600160a01b03909116906315eaef6b906108d1903090339087906004016131a2565b600060405180830381600087803b1580156108eb57600080fd5b505af11580156108ff573d6000803e3d6000fd5b5050505060048101546000908152606d602052604090206001018054600160401b90046001600160401b0316906008610937836131f3565b82546001600160401b039182166101009390930a9283029190920219909116179055506000828152606c602052604081208181556001810180546001600160a01b031916905560028101829055906109926003830182612690565b600482016000905550506109a660676124f6565b5050565b6069546001600160a01b031633146109d45760405162461bcd60e51b815260040161048890613216565b60006109df60655490565b6000818152606d602052604090209091506109fa8382613296565b506000818152606d6020526040902060010180546001600160801b03191690556109a6606580546001019055565b6069546001600160a01b03163314610a525760405162461bcd60e51b815260040161048890613216565b806001610a5e60655490565b610a689190613107565b1015610a865760405162461bcd60e51b815260040161048890612f6c565b6000858152606a6020526040902080610a9f8682613296565b506001600160401b0393909316600184015560028301805460ff1916921515929092179091556005909101555050565b610ad76126ca565b6000828152606c6020908152604091829020825160a0810184528154815260018201546001600160a01b031692810192909252600281015492820192909252600382018054919291606084019190610b2e9061311a565b80601f0160208091040260200160405190810160405280929190818152602001828054610b5a9061311a565b8015610ba75780601f10610b7c57610100808354040283529160200191610ba7565b820191906000526020600020905b815481529060010190602001808311610b8a57829003601f168201915b505050505081526020016004820154815250509050919050565b6000838152606b60205260409020606f5460018201546001600160a01b03909116906323b872dd9033903090610bf89088906130c6565b6040518463ffffffff1660e01b8152600401610c16939291906131a2565b6020604051808303816000875af1158015610c35573d6000803e3d6000fd5b505050506040513d601f19601f82011682018060405250810190610c5991906131d6565b5060705460405163731133e960e01b81526001600160a01b039091169063731133e990610c90903390889088908890600401613355565b600060405180830381600087803b158015610caa57600080fd5b505af1158015610cbe573d6000803e3d6000fd5b5050505050505050565b606e5460405163bc23f3cd60e01b8152600481018490526000916001600160a01b03169063bc23f3cd90602401600060405180830381865afa158015610d12573d6000803e3d6000fd5b505050506040513d6000823e601f3d908101601f19168201604052610d3a91908101906133d1565b604080516080810182526000808252602082018190528183018190526060820152606e5491516331a9108f60e11b8152600481018790529293509133916001600160a01b031690636352211e90602401602060405180830381865afa158015610da7573d6000803e3d6000fd5b505050506040513d601f19601f82011682018060405250810190610dcb9190613483565b6001600160a01b031614610df15760405162461bcd60e51b8152600401610488906134a0565b81608001518015610e06575060008260a00151115b15610ee557606e5460405163403df3b960e01b8152600481018690526001600160a01b039091169063403df3b990602401608060405180830381865afa158015610e54573d6000803e3d6000fd5b505050506040513d601f19601f82011682018060405250810190610e7891906134d5565b60a08301519091501580610e9957504281606001516001600160401b031611155b610ee55760405162461bcd60e51b815260206004820181905260248201527f4e4654206f6e2072656e74616c2c20796f752063616e27742073656c6c2069746044820152606401610488565b4281606001516001600160401b031611610f5857606e54604051631c8ee13f60e11b8152600481018690526001600160a01b039091169063391dc27e90602401600060405180830381600087803b158015610f3f57600080fd5b505af1158015610f53573d6000803e3d6000fd5b505050505b606e546040516345290fdb60e11b8152336004820152602481018690526001600160a01b0390911690638a521fb690604401600060405180830381600087803b158015610fa457600080fd5b505af1158015610fb8573d6000803e3d6000fd5b5050506000858152606c602090815260409091208681556001810180546001600160a01b03191633179055908401519091506003820190610ff99082613296565b506002810184905560c0830151600482018190556000908152606d602052604090206001018054600160401b90046001600160401b031690600861103c83613550565b91906101000a8154816001600160401b0302191690836001600160401b031602179055505061106f606780546001019055565b5050505050565b600061080660675490565b6000818152606c6020526040902060018101546001600160a01b031633146110ea5760405162461bcd60e51b815260206004820152602860248201526000805160206136d4833981519152604482015267329029b2b63632b960c11b6064820152608401610488565b606e546040516315eaef6b60e01b81526001600160a01b03909116906315eaef6b9061111e903090339087906004016131a2565b600060405180830381600087803b15801561113857600080fd5b505af115801561114c573d6000803e3d6000fd5b5050505061115a60676124f6565b6000828152606c602052604081208181556001810180546001600160a01b031916905560028101829055906111926003830182612690565b600482016000905550505050565b6111a8612702565b6000828152606d6020526040908190208151606081019092528054829082906111d09061311a565b80601f01602080910402602001604051908101604052809291908181526020018280546111fc9061311a565b80156112495780601f1061121e57610100808354040283529160200191611249565b820191906000526020600020905b81548152906001019060200180831161122c57829003601f168201915b5050509183525050600191909101546001600160401b038082166020840152600160401b9091041660409091015292915050565b611285612656565b6000828152606a602052604090819020815160c081019092528054829082906112ad9061311a565b80601f01602080910402602001604051908101604052809291908181526020018280546112d99061311a565b80156113265780601f106112fb57610100808354040283529160200191611326565b820191906000526020600020905b81548152906001019060200180831161130957829003601f168201915b505050918352505060018201546020820152600282015460ff90811615156040830152600383015460608301526004830154161515608082015260059091015460a09091015292915050565b61137a61254b565b61138460006125aa565b565b6060600061139360665490565b90506000816001600160401b038111156113af576113af61275c565b6040519080825280602002602001820160405280156113e857816020015b6113d5612656565b8152602001906001900390816113cd5790505b5090508160000361142c576040805160008082526020820190925290611424565b611411612656565b8152602001906001900390816114095790505b509250505090565b6000805b8381101561155f576000818152606a602052604090819020815160c081019092528054829082906114609061311a565b80601f016020809104026020016040519081016040528092919081815260200182805461148c9061311a565b80156114d95780601f106114ae576101008083540402835291602001916114d9565b820191906000526020600020905b8154815290600101906020018083116114bc57829003601f168201915b505050918352505060018201546020820152600282015460ff90811615156040830152600383015460608301526004830154161515608082015260059091015460a090910152835184908490811061153357611533613154565b602002602001018190525081806115499061316a565b92505080806115579061316a565b915050611430565b50909392505050565b6060600061157560655490565b90506000816001600160401b038111156115915761159161275c565b6040519080825280602002602001820160405280156115ca57816020015b6115b7612702565b8152602001906001900390816115af5790505b5090508160000361160d576040805160008082526020820190925290611424565b6115f3612702565b8152602001906001900390816115eb579050509250505090565b6000805b8381101561155f576000818152606d6020526040908190208151606081019092528054829082906116419061311a565b80601f016020809104026020016040519081016040528092919081815260200182805461166d9061311a565b80156116ba5780601f1061168f576101008083540402835291602001916116ba565b820191906000526020600020905b81548152906001019060200180831161169d57829003601f168201915b5050509183525050600191909101546001600160401b038082166020840152600160401b9091041660409091015283518490849081106116fc576116fc613154565b602002602001018190525081806117129061316a565b92505080806117209061316a565b915050611611565b6069546001600160a01b031633146117525760405162461bcd60e51b815260040161048890613216565b80600161175e60655490565b6117689190613107565b10156117865760405162461bcd60e51b815260040161048890612f6c565b6000858152606b602052604090208061179f8682613296565b506001600160401b039093166001840155506002909101555050565b6069546001600160a01b031633146117e55760405162461bcd60e51b815260040161048890613216565b806117ef60655490565b101561180d5760405162461bcd60e51b815260040161048890612f6c565b600061181860665490565b6000818152606a60205260409020909150806118348782613296565b50606f60009054906101000a90046001600160a01b03166001600160a01b031663313ce5676040518163ffffffff1660e01b8152600401602060405180830381865afa158015611888573d6000803e3d6000fd5b505050506040513d601f19601f820116820180604052508101906118ac9190612f98565b6118b790600a6130b7565b6118ca906001600160401b0387166130c6565b60018083019190915560028201805486151560ff19918216179091556004830180549091169055600582018490556000848152606d6020526040812090910180546001600160401b03169161191e83613550565b91906101000a8154816001600160401b0302191690836001600160401b0316021790555050831561195157600060038201555b61195f606680546001019055565b505050505050565b6033546001600160a01b031690565b6060600061198360685490565b90506000816001600160401b0381111561199f5761199f61275c565b6040519080825280602002602001820160405280156119d857816020015b6119c5612722565b8152602001906001900390816119bd5790505b50905081600003611a1b576040805160008082526020820190925290611424565b611a01612722565b8152602001906001900390816119f9579050509250505090565b6000805b8381101561155f576000818152606b602052604090819020815160608101909252805482908290611a4f9061311a565b80601f0160208091040260200160405190810160405280929190818152602001828054611a7b9061311a565b8015611ac85780601f10611a9d57610100808354040283529160200191611ac8565b820191906000526020600020905b815481529060010190602001808311611aab57829003601f168201915b5050505050815260200160018201548152602001600282015481525050838381518110611af757611af7613154565b60200260200101819052508180611b0d9061316a565b9250508080611b1b9061316a565b915050611a1f565b6069546001600160a01b03163314611b4d5760405162461bcd60e51b815260040161048890613216565b6000611b5860685490565b6000818152606b6020526040902090915080611b748682613296565b506001600160401b038416600182015560028101839055611b99606880546001019055565b60705460405163d498094960e01b81526001600160a01b039091169063d49809499061057b9088908890889060040161357e565b6060816001611bdb60655490565b611be59190613107565b1015611c035760405162461bcd60e51b815260040161048890612f6c565b6000828152606d60205260408120600101546001600160401b03600160401b909104811691908290811115611c3a57611c3a61275c565b604051908082528060200260200182016040528015611c7357816020015b611c606126ca565b815260200190600190039081611c585790505b50905081600003611cb757604080516000808252602082019092529061068f565b611c9c6126ca565b815260200190600190039081611c9457905050949350505050565b6000805b6067548160ff1610156107f15760ff81166000908152606c6020526040902060040154869003611df85760ff81166000908152606c6020908152604091829020825160a0810184528154815260018201546001600160a01b031692810192909252600281015492820192909252600382018054919291606084019190611d409061311a565b80601f0160208091040260200160405190810160405280929190818152602001828054611d6c9061311a565b8015611db95780601f10611d8e57610100808354040283529160200191611db9565b820191906000526020600020905b815481529060010190602001808311611d9c57829003601f168201915b50505050508152602001600482015481525050838381518110611dde57611dde613154565b60200260200101819052508180611df49061316a565b9250505b80611e0281613183565b915050611cbb565b600061080660685490565b6069546001600160a01b03163314611e3f5760405162461bcd60e51b815260040161048890613216565b6000818152606a6020908152604080832060058101548452606d9092528220600101805491926001600160401b0390921691611e7a836131f3565b82546001600160401b039182166101009390930a9283029190920219909116179055506000828152606a6020526040812090611eb68282612690565b5060006001820181905560028201805460ff199081169091556003830182905560048301805490911690556005909101556109a660666124f6565b60606000611efe60675490565b90506000816001600160401b03811115611f1a57611f1a61275c565b604051908082528060200260200182016040528015611f5357816020015b611f406126ca565b815260200190600190039081611f385790505b50905081600003611f96576040805160008082526020820190925290611424565b611f7c6126ca565b815260200190600190039081611f74579050509250505090565b6000805b8381101561155f576000818152606c6020908152604091829020825160a0810184528154815260018201546001600160a01b031692810192909252600281015492820192909252600382018054919291606084019190611ff99061311a565b80601f01602080910402602001604051908101604052809291908181526020018280546120259061311a565b80156120725780601f1061204757610100808354040283529160200191612072565b820191906000526020600020905b81548152906001019060200180831161205557829003601f168201915b5050505050815260200160048201548152505083838151811061209757612097613154565b602002602001018190525081806120ad9061316a565b92505080806120bb9061316a565b915050611f9a565b6000818152606a60205260409020600481015460ff16156121185760405162461bcd60e51b815260206004820152600f60248201526e139195081a5cc814dbdb190813dd5d608a1b6044820152606401610488565b606f5460018201546040516323b872dd60e01b81526001600160a01b03909216916323b872dd9161214f91339130916004016131a2565b6020604051808303816000875af115801561216e573d6000803e3d6000fd5b505050506040513d601f19601f8201168201806040525081019061219291906131d6565b50606e5460405163f9fda97760e01b81526001600160a01b039091169063f9fda977906121c590849033906004016135ac565b600060405180830381600087803b1580156121df57600080fd5b505af11580156121f3573d6000803e3d6000fd5b50505060009283525050606a60205260409020600401805460ff19166001179055565b606e546040516331a9108f60e11b81526004810186905233916001600160a01b031690636352211e90602401602060405180830381865afa15801561225f573d6000803e3d6000fd5b505050506040513d601f19601f820116820180604052508101906122839190613483565b6001600160a01b0316146122a95760405162461bcd60e51b8152600401610488906134a0565b8060016122b560655490565b6122bf9190613107565b10156122dd5760405162461bcd60e51b815260040161048890612f6c565b6000848152606c60205260409020600381016122f98582613296565b506001600160401b0390921660028301556004909101555050565b61231c61254b565b6001600160a01b0381166123815760405162461bcd60e51b815260206004820152602660248201527f4f776e61626c653a206e6577206f776e657220697320746865207a65726f206160448201526564647265737360d01b6064820152608401610488565b61238a816125aa565b50565b600054610100900460ff16158080156123ad5750600054600160ff909116105b806123c75750303b1580156123c7575060005460ff166001145b61242a5760405162461bcd60e51b815260206004820152602e60248201527f496e697469616c697a61626c653a20636f6e747261637420697320616c72656160448201526d191e481a5b9a5d1a585b1a5e995960921b6064820152608401610488565b6000805460ff19166001179055801561244d576000805461ff0019166101001790555b6124556125fc565b606980546001600160a01b038088166001600160a01b031992831617909255606e8054868416908316179055606f80548784169083161790556070805492851692909116919091179055801561106f576000805461ff0019169055604051600181527f7f26b83ff96e1f2b6a682f133852f6798a09c465da95921460cefb38474024989060200160405180910390a15050505050565b600061080660665490565b8054806125435760405162461bcd60e51b815260206004820152601b60248201527a436f756e7465723a2064656372656d656e74206f766572666c6f7760281b6044820152606401610488565b600019019055565b33612554611967565b6001600160a01b0316146113845760405162461bcd60e51b815260206004820181905260248201527f4f776e61626c653a2063616c6c6572206973206e6f7420746865206f776e65726044820152606401610488565b603380546001600160a01b038381166001600160a01b0319831681179093556040519116919082907f8be0079c531659141344cd1fd0a4f28419497f9722a3daafe3b4186f6b6457e090600090a35050565b600054610100900460ff166126235760405162461bcd60e51b815260040161048890613688565b611384600054610100900460ff1661264d5760405162461bcd60e51b815260040161048890613688565b611384336125aa565b6040518060c00160405280606081526020016000815260200160001515815260200160008152602001600015158152602001600081525090565b50805461269c9061311a565b6000825580601f106126ac575050565b601f01602090049060005260206000209081019061238a9190612743565b6040518060a001604052806000815260200160006001600160a01b031681526020016000815260200160608152602001600081525090565b604080516060808201835281526000602082018190529181019190915290565b60405180606001604052806060815260200160008152602001600081525090565b5b808211156127585760008155600101612744565b5090565b634e487b7160e01b600052604160045260246000fd5b60405160e081016001600160401b03811182821017156127945761279461275c565b60405290565b604051601f8201601f191681016001600160401b03811182821017156127c2576127c261275c565b604052919050565b60006001600160401b038211156127e3576127e361275c565b50601f01601f191660200190565b60006128046127ff846127ca565b61279a565b905082815283838301111561281857600080fd5b828260208301376000602084830101529392505050565b600082601f83011261284057600080fd5b61284f838335602085016127f1565b9392505050565b6001600160401b038116811461238a57600080fd5b801515811461238a57600080fd5b6000806000806080858703121561288f57600080fd5b84356001600160401b038111156128a557600080fd5b6128b18782880161282f565b94505060208501356128c281612856565b925060408501356128d28161286b565b9396929550929360600135925050565b6000602082840312156128f457600080fd5b5035919050565b60005b838110156129165781810151838201526020016128fe565b50506000910152565b600081518084526129378160208601602086016128fb565b601f01601f19169290920160200192915050565b6000815160c0845261296060c085018261291f565b9050602083015160208501526040830151151560408501526060830151606085015260808301511515608085015260a083015160a08501528091505092915050565b6000602080830181845280855180835260408601915060408160051b870101925083870160005b828110156129f757603f198886030184526129e585835161294b565b945092850192908501906001016129c9565b5092979650505050505050565b6001600160a01b038116811461238a57600080fd5b600080600080600060808688031215612a3157600080fd5b8535612a3c81612a04565b94506020860135612a4c81612a04565b93506040860135925060608601356001600160401b0380821115612a6f57600080fd5b818801915088601f830112612a8357600080fd5b813581811115612a9257600080fd5b896020828501011115612aa457600080fd5b9699959850939650602001949392505050565b600060208284031215612ac957600080fd5b81356001600160401b03811115612adf57600080fd5b612aeb8482850161282f565b949350505050565b600080600080600060a08688031215612b0b57600080fd5b8535945060208601356001600160401b03811115612b2857600080fd5b612b348882890161282f565b9450506040860135612b4581612856565b92506060860135612b558161286b565b949793965091946080013592915050565b8051825260018060a01b036020820151166020830152604081015160408301526000606082015160a06060850152612ba160a085018261291f565b608093840151949093019390935250919050565b60208152600061284f6020830184612b66565b600080600060608486031215612bdd57600080fd5b833592506020840135915060408401356001600160401b03811115612c0157600080fd5b8401601f81018613612c1257600080fd5b612c21868235602084016127f1565b9150509250925092565b60008060408385031215612c3e57600080fd5b50508035926020909101359150565b6000815160608452612c62606085018261291f565b6020848101516001600160401b039081169187019190915260409485015116949093019390935250919050565b60208152600061284f6020830184612c4d565b60208152600061284f602083018461294b565b6000602080830181845280855180835260408601915060408160051b870101925083870160005b828110156129f757603f19888603018452612cf8858351612c4d565b94509285019290850190600101612cdc565b600080600080600060a08688031215612d2257600080fd5b8535945060208601356001600160401b03811115612d3f57600080fd5b612d4b8882890161282f565b9450506040860135612d5c81612856565b94979396509394606081013594506080013592915050565b60006020808301818452808551808352604092508286019150828160051b87010184880160005b83811015612de757603f19898403018552815160608151818652612dc18287018261291f565b838b0151878c015292890151958901959095525094870194925090860190600101612d9b565b509098975050505050505050565b600080600060608486031215612e0a57600080fd5b83356001600160401b03811115612e2057600080fd5b612e2c8682870161282f565b9350506020840135612e3d81612856565b929592945050506040919091013590565b6000602080830181845280855180835260408601915060408160051b870101925083870160005b828110156129f757603f19888603018452612e91858351612b66565b94509285019290850190600101612e75565b60008060008060808587031215612eb957600080fd5b8435935060208501356001600160401b03811115612ed657600080fd5b612ee28782880161282f565b93505060408501356128d281612856565b600060208284031215612f0557600080fd5b813561284f81612a04565b60008060008060808587031215612f2657600080fd5b8435612f3181612a04565b93506020850135612f4181612a04565b92506040850135612f5181612a04565b91506060850135612f6181612a04565b939692955090935050565b60208082526012908201527110d85d1959dbdc9e481b9bdd08199bdd5b9960721b604082015260600190565b600060208284031215612faa57600080fd5b815160ff8116811461284f57600080fd5b634e487b7160e01b600052601160045260246000fd5b600181815b8085111561300c578160001904821115612ff257612ff2612fbb565b80851615612fff57918102915b93841c9390800290612fd6565b509250929050565b600082613023575060016130b1565b81613030575060006130b1565b816001811461304657600281146130505761306c565b60019150506130b1565b60ff84111561306157613061612fbb565b50506001821b6130b1565b5060208310610133831016604e8410600b841016171561308f575081810a6130b1565b6130998383612fd1565b80600019048211156130ad576130ad612fbb565b0290505b92915050565b600061284f60ff841683613014565b80820281158282048414176130b1576130b1612fbb565b6040815260006130f0604083018561294b565b905060018060a01b03831660208301529392505050565b818103818111156130b1576130b1612fbb565b600181811c9082168061312e57607f821691505b60208210810361314e57634e487b7160e01b600052602260045260246000fd5b50919050565b634e487b7160e01b600052603260045260246000fd5b60006001820161317c5761317c612fbb565b5060010190565b600060ff821660ff810361319957613199612fbb565b60010192915050565b6001600160a01b039384168152919092166020820152604081019190915260600190565b80516131d18161286b565b919050565b6000602082840312156131e857600080fd5b815161284f8161286b565b60006001600160401b0382168061320c5761320c612fbb565b6000190192915050565b6020808252818101527f4f6e6c792041646d696e2043616e2043616c6c205468652046756e6374696f6e604082015260600190565b601f82111561329157600081815260208120601f850160051c810160208610156132725750805b601f850160051c820191505b8181101561195f5782815560010161327e565b505050565b81516001600160401b038111156132af576132af61275c565b6132c3816132bd845461311a565b8461324b565b602080601f8311600181146132f857600084156132e05750858301515b600019600386901b1c1916600185901b17855561195f565b600085815260208120601f198616915b8281101561332757888601518255948401946001909101908401613308565b50858210156133455787850151600019600388901b60f8161c191681555b5050505050600190811b01905550565b60018060a01b0385168152836020820152826040820152608060608201526000613382608083018461291f565b9695505050505050565b600082601f83011261339d57600080fd5b81516133ab6127ff826127ca565b8181528460208386010111156133c057600080fd5b612aeb8260208301602087016128fb565b6000602082840312156133e357600080fd5b81516001600160401b03808211156133fa57600080fd5b9083019060e0828603121561340e57600080fd5b613416612772565b8251815260208301518281111561342c57600080fd5b6134388782860161338c565b602083015250604083015160408201526060830151606082015261345e608084016131c6565b608082015260a083015160a082015260c083015160c082015280935050505092915050565b60006020828403121561349557600080fd5b815161284f81612a04565b60208082526027908201526000805160206136d4833981519152604082015266329027bbb732b960c91b606082015260800190565b6000608082840312156134e757600080fd5b604051608081016001600160401b03811182821017156135095761350961275c565b60405282518152602083015161351e81612a04565b6020820152604083015161353181612a04565b6040820152606083015161354481612856565b60608201529392505050565b60006001600160401b038281166002600160401b0319810161357457613574612fbb565b6001019392505050565b606081526000613591606083018661291f565b6001600160401b039490941660208301525060400152919050565b6040815260c0604082015260008084546135c58161311a565b806101008601526101206001808416600081146135e9576001811461360357613634565b60ff1985168884015283151560051b880183019550613634565b8960005260208060002060005b8681101561362b5781548b8201870152908401908201613610565b8a018501975050505b508801546060870152505050600285015460ff90811615156080850152600386015460a0850152600486015416151560c0840152600585015460e08401526001600160a01b0384166020840152905061284f565b6020808252602b908201527f496e697469616c697a61626c653a20636f6e7472616374206973206e6f74206960408201526a6e697469616c697a696e6760a81b60608201526080019056fe5065726d697373696f6e2044656e6965643a2043616c6c6572204e6f74205468a26469706673582212206cfb22dc03621c9599003b2db37060e8ca12be992f6cf6c70d58f717e0c017f964736f6c63430008110033",
  "linkReferences": {},
  "deployedLinkReferences": {}
}