{
  "_format": "hh-sol-artifact-1",
  "contractName": "MaterialNFT",
  "sourceName": "contracts/MaterialNFT.sol",
  "abi": [
    {
      "inputs": [],
      "stateMutability": "nonpayable",
      "type": "constructor"
    },
    {
      "anonymous": false,
      "inputs": [
        {
          "indexed": true,
          "internalType": "address",
          "name": "account",
          "type": "address"
        },
        {
          "indexed": true,
          "internalType": "address",
          "name": "operator",
          "type": "address"
        },
        {
          "indexed": false,
          "internalType": "bool",
          "name": "approved",
          "type": "bool"
        }
      ],
      "name": "ApprovalForAll",
      "type": "event"
    },
    {
      "anonymous": false,
      "inputs": [
        {
          "indexed": false,
          "internalType": "uint8",
          "name": "version",
          "type": "uint8"
        }
      ],
      "name": "Initialized",
      "type": "event"
    },
    {
      "anonymous": false,
      "inputs": [
        {
          "indexed": true,
          "internalType": "address",
          "name": "previousOwner",
          "type": "address"
        },
        {
          "indexed": true,
          "internalType": "address",
          "name": "newOwner",
          "type": "address"
        }
      ],
      "name": "OwnershipTransferred",
      "type": "event"
    },
    {
      "anonymous": false,
      "inputs": [
        {
          "indexed": true,
          "internalType": "address",
          "name": "operator",
          "type": "address"
        },
        {
          "indexed": true,
          "internalType": "address",
          "name": "from",
          "type": "address"
        },
        {
          "indexed": true,
          "internalType": "address",
          "name": "to",
          "type": "address"
        },
        {
          "indexed": false,
          "internalType": "uint256[]",
          "name": "ids",
          "type": "uint256[]"
        },
        {
          "indexed": false,
          "internalType": "uint256[]",
          "name": "values",
          "type": "uint256[]"
        }
      ],
      "name": "TransferBatch",
      "type": "event"
    },
    {
      "anonymous": false,
      "inputs": [
        {
          "indexed": true,
          "internalType": "address",
          "name": "operator",
          "type": "address"
        },
        {
          "indexed": true,
          "internalType": "address",
          "name": "from",
          "type": "address"
        },
        {
          "indexed": true,
          "internalType": "address",
          "name": "to",
          "type": "address"
        },
        {
          "indexed": false,
          "internalType": "uint256",
          "name": "id",
          "type": "uint256"
        },
        {
          "indexed": false,
          "internalType": "uint256",
          "name": "value",
          "type": "uint256"
        }
      ],
      "name": "TransferSingle",
      "type": "event"
    },
    {
      "anonymous": false,
      "inputs": [
        {
          "indexed": false,
          "internalType": "string",
          "name": "value",
          "type": "string"
        },
        {
          "indexed": true,
          "internalType": "uint256",
          "name": "id",
          "type": "uint256"
        }
      ],
      "name": "URI",
      "type": "event"
    },
    {
      "inputs": [
        {
          "internalType": "string",
          "name": "_uuid",
          "type": "string"
        },
        {
          "internalType": "uint256",
          "name": "_price",
          "type": "uint256"
        },
        {
          "internalType": "uint256",
          "name": "_maxMint",
          "type": "uint256"
        }
      ],
      "name": "addMaterial",
      "outputs": [],
      "stateMutability": "nonpayable",
      "type": "function"
    },
    {
      "inputs": [
        {
          "internalType": "address",
          "name": "account",
          "type": "address"
        },
        {
          "internalType": "uint256",
          "name": "id",
          "type": "uint256"
        }
      ],
      "name": "balanceOf",
      "outputs": [
        {
          "internalType": "uint256",
          "name": "",
          "type": "uint256"
        }
      ],
      "stateMutability": "view",
      "type": "function"
    },
    {
      "inputs": [
        {
          "internalType": "address[]",
          "name": "accounts",
          "type": "address[]"
        },
        {
          "internalType": "uint256[]",
          "name": "ids",
          "type": "uint256[]"
        }
      ],
      "name": "balanceOfBatch",
      "outputs": [
        {
          "internalType": "uint256[]",
          "name": "",
          "type": "uint256[]"
        }
      ],
      "stateMutability": "view",
      "type": "function"
    },
    {
      "inputs": [
        {
          "internalType": "uint256",
          "name": "_id",
          "type": "uint256"
        }
      ],
      "name": "getMaterial",
      "outputs": [
        {
          "components": [
            {
              "internalType": "string",
              "name": "uuid",
              "type": "string"
            },
            {
              "internalType": "uint256",
              "name": "price",
              "type": "uint256"
            },
            {
              "internalType": "uint256",
              "name": "maxMint",
              "type": "uint256"
            },
            {
              "internalType": "uint256",
              "name": "sold",
              "type": "uint256"
            }
          ],
          "internalType": "struct MaterialNft",
          "name": "",
          "type": "tuple"
        }
      ],
      "stateMutability": "view",
      "type": "function"
    },
    {
      "inputs": [
        {
          "internalType": "address",
          "name": "_adminAddress",
          "type": "address"
        }
      ],
      "name": "initialize",
      "outputs": [],
      "stateMutability": "nonpayable",
      "type": "function"
    },
    {
      "inputs": [
        {
          "internalType": "address",
          "name": "account",
          "type": "address"
        },
        {
          "internalType": "address",
          "name": "operator",
          "type": "address"
        }
      ],
      "name": "isApprovedForAll",
      "outputs": [
        {
          "internalType": "bool",
          "name": "",
          "type": "bool"
        }
      ],
      "stateMutability": "view",
      "type": "function"
    },
    {
      "inputs": [],
      "name": "market",
      "outputs": [
        {
          "internalType": "contract Market",
          "name": "",
          "type": "address"
        }
      ],
      "stateMutability": "view",
      "type": "function"
    },
    {
      "inputs": [
        {
          "internalType": "address",
          "name": "account",
          "type": "address"
        },
        {
          "internalType": "uint256",
          "name": "id",
          "type": "uint256"
        },
        {
          "internalType": "uint256",
          "name": "amount",
          "type": "uint256"
        },
        {
          "internalType": "bytes",
          "name": "data",
          "type": "bytes"
        }
      ],
      "name": "mint",
      "outputs": [],
      "stateMutability": "nonpayable",
      "type": "function"
    },
    {
      "inputs": [
        {
          "internalType": "address",
          "name": "to",
          "type": "address"
        },
        {
          "internalType": "uint256[]",
          "name": "ids",
          "type": "uint256[]"
        },
        {
          "internalType": "uint256[]",
          "name": "amounts",
          "type": "uint256[]"
        },
        {
          "internalType": "bytes",
          "name": "data",
          "type": "bytes"
        }
      ],
      "name": "mintBatch",
      "outputs": [],
      "stateMutability": "nonpayable",
      "type": "function"
    },
    {
      "inputs": [],
      "name": "owner",
      "outputs": [
        {
          "internalType": "address",
          "name": "",
          "type": "address"
        }
      ],
      "stateMutability": "view",
      "type": "function"
    },
    {
      "inputs": [],
      "name": "renounceOwnership",
      "outputs": [],
      "stateMutability": "nonpayable",
      "type": "function"
    },
    {
      "inputs": [
        {
          "internalType": "address",
          "name": "from",
          "type": "address"
        },
        {
          "internalType": "address",
          "name": "to",
          "type": "address"
        },
        {
          "internalType": "uint256[]",
          "name": "ids",
          "type": "uint256[]"
        },
        {
          "internalType": "uint256[]",
          "name": "amounts",
          "type": "uint256[]"
        },
        {
          "internalType": "bytes",
          "name": "data",
          "type": "bytes"
        }
      ],
      "name": "safeBatchTransferFrom",
      "outputs": [],
      "stateMutability": "nonpayable",
      "type": "function"
    },
    {
      "inputs": [
        {
          "internalType": "address",
          "name": "from",
          "type": "address"
        },
        {
          "internalType": "address",
          "name": "to",
          "type": "address"
        },
        {
          "internalType": "uint256",
          "name": "id",
          "type": "uint256"
        },
        {
          "internalType": "uint256",
          "name": "amount",
          "type": "uint256"
        },
        {
          "internalType": "bytes",
          "name": "data",
          "type": "bytes"
        }
      ],
      "name": "safeTransferFrom",
      "outputs": [],
      "stateMutability": "nonpayable",
      "type": "function"
    },
    {
      "inputs": [
        {
          "internalType": "address",
          "name": "operator",
          "type": "address"
        },
        {
          "internalType": "bool",
          "name": "approved",
          "type": "bool"
        }
      ],
      "name": "setApprovalForAll",
      "outputs": [],
      "stateMutability": "nonpayable",
      "type": "function"
    },
    {
      "inputs": [
        {
          "internalType": "contract Market",
          "name": "_market",
          "type": "address"
        }
      ],
      "name": "setMarket",
      "outputs": [],
      "stateMutability": "nonpayable",
      "type": "function"
    },
    {
      "inputs": [
        {
          "internalType": "string",
          "name": "newuri",
          "type": "string"
        }
      ],
      "name": "setURI",
      "outputs": [],
      "stateMutability": "nonpayable",
      "type": "function"
    },
    {
      "inputs": [
        {
          "internalType": "bytes4",
          "name": "interfaceId",
          "type": "bytes4"
        }
      ],
      "name": "supportsInterface",
      "outputs": [
        {
          "internalType": "bool",
          "name": "",
          "type": "bool"
        }
      ],
      "stateMutability": "view",
      "type": "function"
    },
    {
      "inputs": [],
      "name": "totalList",
      "outputs": [
        {
          "internalType": "uint256",
          "name": "",
          "type": "uint256"
        }
      ],
      "stateMutability": "view",
      "type": "function"
    },
    {
      "inputs": [
        {
          "internalType": "address",
          "name": "newOwner",
          "type": "address"
        }
      ],
      "name": "transferOwnership",
      "outputs": [],
      "stateMutability": "nonpayable",
      "type": "function"
    },
    {
      "inputs": [
        {
          "internalType": "uint256",
          "name": "_id",
          "type": "uint256"
        },
        {
          "internalType": "uint256",
          "name": "_price",
          "type": "uint256"
        },
        {
          "internalType": "uint256",
          "name": "_maxMint",
          "type": "uint256"
        }
      ],
      "name": "updateMaterial",
      "outputs": [],
      "stateMutability": "nonpayable",
      "type": "function"
    },
    {
      "inputs": [
        {
          "internalType": "uint256",
          "name": "",
          "type": "uint256"
        }
      ],
      "name": "uri",
      "outputs": [
        {
          "internalType": "string",
          "name": "",
          "type": "string"
        }
      ],
      "stateMutability": "view",
      "type": "function"
    }
  ],
  "bytecode": "0x608060405234801561001057600080fd5b5061001961001e565b6100dd565b600054610100900460ff161561008a5760405162461bcd60e51b815260206004820152602760248201527f496e697469616c697a61626c653a20636f6e747261637420697320696e697469604482015266616c697a696e6760c81b606482015260840160405180910390fd5b60005460ff908116146100db576000805460ff191660ff9081179091556040519081527f7f26b83ff96e1f2b6a682f133852f6798a09c465da95921460cefb38474024989060200160405180910390a15b565b61223880620000ed6000396000f3fe608060405234801561001057600080fd5b50600436106101065760003560e01c8062fdd58e1461010b57806301ffc9a71461013157806302fe5305146101545780630e89341c146101695780631f7fdffa146101895780632eb2c2d61461019c5780632fa4f3c2146101af5780634e1273f4146101c25780636dcea85f146101e2578063715018a6146101f5578063731133e9146101fd57806380f55605146102105780638da5cb5b1461023b578063a22cb46514610243578063beeb702d14610256578063c4d66de81461025f578063d498094914610272578063da6d890914610285578063e985e9c5146102a5578063f242432a146102e1578063f2fde38b146102f4575b600080fd5b61011e6101193660046115b2565b610307565b6040519081526020015b60405180910390f35b61014461013f3660046115f4565b6103a2565b6040519015158152602001610128565b6101676101623660046116cd565b6103f2565b005b61017c610177366004611709565b610406565b6040516101289190611768565b61016761019736600461180f565b61049a565b6101676101aa3660046118a9565b6104d6565b6101676101bd366004611956565b610522565b6101d56101d0366004611982565b6105f9565b6040516101289190611a89565b6101676101f0366004611a9c565b610722565b61016761074c565b61016761020b366004611ab9565b610760565b60c954610223906001600160a01b031681565b6040516001600160a01b039091168152602001610128565b610223610883565b610167610251366004611b0f565b610892565b61011e60cb5481565b61016761026d366004611a9c565b6108a1565b610167610280366004611b4d565b6109ec565b610298610293366004611709565b610a64565b6040516101289190611b9a565b6101446102b3366004611be0565b6001600160a01b03918216600090815260666020908152604080832093909416825291909152205460ff1690565b6101676102ef366004611c0e565b610b64565b610167610302366004611a9c565b610ba9565b60006001600160a01b0383166103775760405162461bcd60e51b815260206004820152602a60248201527f455243313135353a2061646472657373207a65726f206973206e6f742061207660448201526930b634b21037bbb732b960b11b60648201526084015b60405180910390fd5b5060008181526065602090815260408083206001600160a01b03861684529091529020545b92915050565b60006001600160e01b03198216636cdb3d1360e11b14806103d357506001600160e01b031982166303a24d0760e21b145b8061039c57506301ffc9a760e01b6001600160e01b031983161461039c565b6103fa610c1f565b61040381610c7e565b50565b60606067805461041590611c76565b80601f016020809104026020016040519081016040528092919081815260200182805461044190611c76565b801561048e5780601f106104635761010080835404028352916020019161048e565b820191906000526020600020905b81548152906001019060200180831161047157829003601f168201915b50505050509050919050565b60c9546001600160a01b031633146104c45760405162461bcd60e51b815260040161036e90611cb0565b6104d084848484610c8a565b50505050565b6001600160a01b0385163314806104f257506104f285336102b3565b61050e5760405162461bcd60e51b815260040161036e90611cc1565b61051b8585858585610dc4565b5050505050565b60ca546001600160a01b0316331461057c5760405162461bcd60e51b815260206004820181905260248201527f4f6e6c792041646d696e2043616e2043616c6c205468652046756e6374696f6e604482015260640161036e565b600083815260cc6020526040902060cb548411156105e85760405162461bcd60e51b815260206004820152602360248201527f57726f6e67206d6574686f642c206e6f206d6174657269616c20617661696c61604482015262626c6560e81b606482015260840161036e565b600181019290925560029091015550565b6060815183511461065e5760405162461bcd60e51b815260206004820152602960248201527f455243313135353a206163636f756e747320616e6420696473206c656e677468604482015268040dad2e6dac2e8c6d60bb1b606482015260840161036e565b600083516001600160401b0381111561067957610679611618565b6040519080825280602002602001820160405280156106a2578160200160208202803683370190505b50905060005b845181101561071a576106ed8582815181106106c6576106c6611d0f565b60200260200101518583815181106106e0576106e0611d0f565b6020026020010151610307565b8282815181106106ff576106ff611d0f565b602090810291909101015261071381611d3b565b90506106a8565b509392505050565b61072a610c1f565b60c980546001600160a01b0319166001600160a01b0392909216919091179055565b610754610c1f565b61075e6000610f51565b565b60c9546001600160a01b0316331461078a5760405162461bcd60e51b815260040161036e90611cb0565b600083815260cc6020526040902060028101546003820154106107e85760405162461bcd60e51b815260206004820152601660248201527513585d195c9a585b081a185cc81899595b881cdbdb1960521b604482015260640161036e565b82816003015482600201546107fd9190611d54565b10156108575760405162461bcd60e51b8152602060048201526024808201527f5468652072656d61696e696e67206d6174657269616c206973206e6f7420656e6044820152630deeaced60e31b606482015260840161036e565b61086385858585610fa3565b828160030160008282546108779190611d67565b90915550505050505050565b6097546001600160a01b031690565b61089d33838361106d565b5050565b600054610100900460ff16158080156108c15750600054600160ff909116105b806108e257506108d03061114d565b1580156108e2575060005460ff166001145b6109455760405162461bcd60e51b815260206004820152602e60248201527f496e697469616c697a61626c653a20636f6e747261637420697320616c72656160448201526d191e481a5b9a5d1a585b1a5e995960921b606482015260840161036e565b6000805460ff191660011790558015610968576000805461ff0019166101001790555b6109806040518060200160405280600081525061115c565b61098861118c565b60ca80546001600160a01b0319166001600160a01b038416179055801561089d576000805461ff0019169055604051600181527f7f26b83ff96e1f2b6a682f133852f6798a09c465da95921460cefb38474024989060200160405180910390a15050565b60c9546001600160a01b03163314610a165760405162461bcd60e51b815260040161036e90611cb0565b60cb54600081815260cc6020526040902080610a328682611dc5565b50600181018490556002810183905560006003820181905560cb805491610a5883611d3b565b91905055505050505050565b610a8f6040518060800160405280606081526020016000815260200160008152602001600081525090565b600082815260cc6020526040908190208151608081019092528054909190829082908290610abc90611c76565b80601f0160208091040260200160405190810160405280929190818152602001828054610ae890611c76565b8015610b355780601f10610b0a57610100808354040283529160200191610b35565b820191906000526020600020905b815481529060010190602001808311610b1857829003601f168201915b505050505081526020016001820154815260200160028201548152602001600382015481525050915050919050565b6001600160a01b038516331480610b805750610b8085336102b3565b610b9c5760405162461bcd60e51b815260040161036e90611cc1565b61051b85858585856111bb565b610bb1610c1f565b6001600160a01b038116610c165760405162461bcd60e51b815260206004820152602660248201527f4f776e61626c653a206e6577206f776e657220697320746865207a65726f206160448201526564647265737360d01b606482015260840161036e565b61040381610f51565b33610c28610883565b6001600160a01b03161461075e5760405162461bcd60e51b815260206004820181905260248201527f4f776e61626c653a2063616c6c6572206973206e6f7420746865206f776e6572604482015260640161036e565b606761089d8282611dc5565b6001600160a01b038416610cb05760405162461bcd60e51b815260040161036e90611e84565b8151835114610cd15760405162461bcd60e51b815260040161036e90611ec5565b3360005b8451811015610d6e57838181518110610cf057610cf0611d0f565b602002602001015160656000878481518110610d0e57610d0e611d0f565b602002602001015181526020019081526020016000206000886001600160a01b03166001600160a01b031681526020019081526020016000206000828254610d569190611d67565b90915550819050610d6681611d3b565b915050610cd5565b50846001600160a01b031660006001600160a01b0316826001600160a01b03166000805160206121c38339815191528787604051610dad929190611f0d565b60405180910390a461051b816000878787876112d7565b8151835114610de55760405162461bcd60e51b815260040161036e90611ec5565b6001600160a01b038416610e0b5760405162461bcd60e51b815260040161036e90611f3b565b3360005b8451811015610ef5576000858281518110610e2c57610e2c611d0f565b602002602001015190506000858381518110610e4a57610e4a611d0f565b60209081029190910181015160008481526065835260408082206001600160a01b038e168352909352919091205490915081811015610e9b5760405162461bcd60e51b815260040161036e90611f80565b60008381526065602090815260408083206001600160a01b038e8116855292528083208585039055908b16825281208054849290610eda908490611d67565b9250508190555050505080610eee90611d3b565b9050610e0f565b50846001600160a01b0316866001600160a01b0316826001600160a01b03166000805160206121c38339815191528787604051610f33929190611f0d565b60405180910390a4610f498187878787876112d7565b505050505050565b609780546001600160a01b038381166001600160a01b0319831681179093556040519116919082907f8be0079c531659141344cd1fd0a4f28419497f9722a3daafe3b4186f6b6457e090600090a35050565b6001600160a01b038416610fc95760405162461bcd60e51b815260040161036e90611e84565b336000610fd585611439565b90506000610fe285611439565b905060008681526065602090815260408083206001600160a01b038b16845290915281208054879290611016908490611d67565b909155505060408051878152602081018790526001600160a01b03808a1692600092918716916000805160206121e3833981519152910160405180910390a461106483600089898989611484565b50505050505050565b816001600160a01b0316836001600160a01b0316036110e05760405162461bcd60e51b815260206004820152602960248201527f455243313135353a2073657474696e6720617070726f76616c20737461747573604482015268103337b91039b2b63360b91b606482015260840161036e565b6001600160a01b03838116600081815260666020908152604080832094871680845294825291829020805460ff191686151590811790915591519182527f17307eab39ab6107e8899845ad3d59bd9653f200f220920489ca2b5937696c31910160405180910390a3505050565b6001600160a01b03163b151590565b600054610100900460ff166111835760405162461bcd60e51b815260040161036e90611fca565b61040381611546565b600054610100900460ff166111b35760405162461bcd60e51b815260040161036e90611fca565b61075e61156d565b6001600160a01b0384166111e15760405162461bcd60e51b815260040161036e90611f3b565b3360006111ed85611439565b905060006111fa85611439565b905060008681526065602090815260408083206001600160a01b038c1684529091529020548581101561123f5760405162461bcd60e51b815260040161036e90611f80565b60008781526065602090815260408083206001600160a01b038d8116855292528083208985039055908a1682528120805488929061127e908490611d67565b909155505060408051888152602081018890526001600160a01b03808b16928c821692918816916000805160206121e3833981519152910160405180910390a46112cc848a8a8a8a8a611484565b505050505050505050565b6112e9846001600160a01b031661114d565b15610f495760405163bc197c8160e01b81526001600160a01b0385169063bc197c81906113229089908990889088908890600401612015565b6020604051808303816000875af192505050801561135d575060408051601f3d908101601f1916820190925261135a91810190612073565b60015b61140957611369612090565b806308c379a0036113a2575061137d6120ac565b8061138857506113a4565b8060405162461bcd60e51b815260040161036e9190611768565b505b60405162461bcd60e51b815260206004820152603460248201527f455243313135353a207472616e7366657220746f206e6f6e2d455243313135356044820152732932b1b2b4bb32b91034b6b83632b6b2b73a32b960611b606482015260840161036e565b6001600160e01b0319811663bc197c8160e01b146110645760405162461bcd60e51b815260040161036e90612135565b6040805160018082528183019092526060916000919060208083019080368337019050509050828160008151811061147357611473611d0f565b602090810291909101015292915050565b611496846001600160a01b031661114d565b15610f495760405163f23a6e6160e01b81526001600160a01b0385169063f23a6e61906114cf908990899088908890889060040161217d565b6020604051808303816000875af192505050801561150a575060408051601f3d908101601f1916820190925261150791810190612073565b60015b61151657611369612090565b6001600160e01b0319811663f23a6e6160e01b146110645760405162461bcd60e51b815260040161036e90612135565b600054610100900460ff166103fa5760405162461bcd60e51b815260040161036e90611fca565b600054610100900460ff166115945760405162461bcd60e51b815260040161036e90611fca565b61075e33610f51565b6001600160a01b038116811461040357600080fd5b600080604083850312156115c557600080fd5b82356115d08161159d565b946020939093013593505050565b6001600160e01b03198116811461040357600080fd5b60006020828403121561160657600080fd5b8135611611816115de565b9392505050565b634e487b7160e01b600052604160045260246000fd5b601f8201601f191681016001600160401b038111828210171561165357611653611618565b6040525050565b600082601f83011261166b57600080fd5b81356001600160401b0381111561168457611684611618565b60405161169b601f8301601f19166020018261162e565b8181528460208386010111156116b057600080fd5b816020850160208301376000918101602001919091529392505050565b6000602082840312156116df57600080fd5b81356001600160401b038111156116f557600080fd5b6117018482850161165a565b949350505050565b60006020828403121561171b57600080fd5b5035919050565b6000815180845260005b818110156117485760208185018101518683018201520161172c565b506000602082860101526020601f19601f83011685010191505092915050565b6020815260006116116020830184611722565b60006001600160401b0382111561179457611794611618565b5060051b60200190565b600082601f8301126117af57600080fd5b813560206117bc8261177b565b6040516117c9828261162e565b83815260059390931b85018201928281019150868411156117e957600080fd5b8286015b8481101561180457803583529183019183016117ed565b509695505050505050565b6000806000806080858703121561182557600080fd5b84356118308161159d565b935060208501356001600160401b038082111561184c57600080fd5b6118588883890161179e565b9450604087013591508082111561186e57600080fd5b61187a8883890161179e565b9350606087013591508082111561189057600080fd5b5061189d8782880161165a565b91505092959194509250565b600080600080600060a086880312156118c157600080fd5b85356118cc8161159d565b945060208601356118dc8161159d565b935060408601356001600160401b03808211156118f857600080fd5b61190489838a0161179e565b9450606088013591508082111561191a57600080fd5b61192689838a0161179e565b9350608088013591508082111561193c57600080fd5b506119498882890161165a565b9150509295509295909350565b60008060006060848603121561196b57600080fd5b505081359360208301359350604090920135919050565b6000806040838503121561199557600080fd5b82356001600160401b03808211156119ac57600080fd5b818501915085601f8301126119c057600080fd5b813560206119cd8261177b565b6040516119da828261162e565b83815260059390931b85018201928281019150898411156119fa57600080fd5b948201945b83861015611a21578535611a128161159d565b825294820194908201906119ff565b96505086013592505080821115611a3757600080fd5b50611a448582860161179e565b9150509250929050565b600081518084526020808501945080840160005b83811015611a7e57815187529582019590820190600101611a62565b509495945050505050565b6020815260006116116020830184611a4e565b600060208284031215611aae57600080fd5b81356116118161159d565b60008060008060808587031215611acf57600080fd5b8435611ada8161159d565b9350602085013592506040850135915060608501356001600160401b03811115611b0357600080fd5b61189d8782880161165a565b60008060408385031215611b2257600080fd5b8235611b2d8161159d565b915060208301358015158114611b4257600080fd5b809150509250929050565b600080600060608486031215611b6257600080fd5b83356001600160401b03811115611b7857600080fd5b611b848682870161165a565b9660208601359650604090950135949350505050565b602081526000825160806020840152611bb660a0840182611722565b90506020840151604084015260408401516060840152606084015160808401528091505092915050565b60008060408385031215611bf357600080fd5b8235611bfe8161159d565b91506020830135611b428161159d565b600080600080600060a08688031215611c2657600080fd5b8535611c318161159d565b94506020860135611c418161159d565b9350604086013592506060860135915060808601356001600160401b03811115611c6a57600080fd5b6119498882890161165a565b600181811c90821680611c8a57607f821691505b602082108103611caa57634e487b7160e01b600052602260045260246000fd5b50919050565b602080825260009082015260400190565b6020808252602e908201527f455243313135353a2063616c6c6572206973206e6f7420746f6b656e206f776e60408201526d195c881bdc88185c1c1c9bdd995960921b606082015260800190565b634e487b7160e01b600052603260045260246000fd5b634e487b7160e01b600052601160045260246000fd5b600060018201611d4d57611d4d611d25565b5060010190565b8181038181111561039c5761039c611d25565b8082018082111561039c5761039c611d25565b601f821115611dc057600081815260208120601f850160051c81016020861015611da15750805b601f850160051c820191505b81811015610f4957828155600101611dad565b505050565b81516001600160401b03811115611dde57611dde611618565b611df281611dec8454611c76565b84611d7a565b602080601f831160018114611e275760008415611e0f5750858301515b600019600386901b1c1916600185901b178555610f49565b600085815260208120601f198616915b82811015611e5657888601518255948401946001909101908401611e37565b5085821015611e745787850151600019600388901b60f8161c191681555b5050505050600190811b01905550565b60208082526021908201527f455243313135353a206d696e7420746f20746865207a65726f206164647265736040820152607360f81b606082015260800190565b60208082526028908201527f455243313135353a2069647320616e6420616d6f756e7473206c656e677468206040820152670dad2e6dac2e8c6d60c31b606082015260800190565b604081526000611f206040830185611a4e565b8281036020840152611f328185611a4e565b95945050505050565b60208082526025908201527f455243313135353a207472616e7366657220746f20746865207a65726f206164604082015264647265737360d81b606082015260800190565b6020808252602a908201527f455243313135353a20696e73756666696369656e742062616c616e636520666f60408201526939103a3930b739b332b960b11b606082015260800190565b6020808252602b908201527f496e697469616c697a61626c653a20636f6e7472616374206973206e6f74206960408201526a6e697469616c697a696e6760a81b606082015260800190565b6001600160a01b0386811682528516602082015260a06040820181905260009061204190830186611a4e565b82810360608401526120538186611a4e565b905082810360808401526120678185611722565b98975050505050505050565b60006020828403121561208557600080fd5b8151611611816115de565b600060033d11156120a95760046000803e5060005160e01c5b90565b600060443d10156120ba5790565b6040516003193d81016004833e81513d6001600160401b0380831160248401831017156120e957505050505090565b82850191508151818111156121015750505050505090565b843d870101602082850101111561211b5750505050505090565b61212a6020828601018761162e565b509095945050505050565b60208082526028908201527f455243313135353a204552433131353552656365697665722072656a656374656040820152676420746f6b656e7360c01b606082015260800190565b6001600160a01b03868116825285166020820152604081018490526060810183905260a0608082018190526000906121b790830184611722565b97965050505050505056fe4a39dc06d4c0dbc64b70af90fd698a233a518aa5d07e595d983b8c0526c8f7fbc3d58168c5ae7397731d063d5bbf3d657854427343f4c083240f7aacaa2d0f62a2646970667358221220e2b17e04f19ab2a0f7a4a919f3c3a0e9698fbb0a9c440e17eacc32e69fdbf44b64736f6c63430008110033",
  "linkReferences": {},
  "deployedLinkReferences": {}
}