{
  "_format": "hh-sol-artifact-1",
  "contractName": "MNFT",
  "sourceName": "contracts/MNFT.sol",
  "abi": [
    {
      "inputs": [],
      "stateMutability": "nonpayable",
      "type": "constructor"
    },
    {
      "anonymous": false,
      "inputs": [
        {
          "indexed": true,
          "internalType": "address",
          "name": "owner",
          "type": "address"
        },
        {
          "indexed": true,
          "internalType": "address",
          "name": "approved",
          "type": "address"
        },
        {
          "indexed": true,
          "internalType": "uint256",
          "name": "tokenId",
          "type": "uint256"
        }
      ],
      "name": "Approval",
      "type": "event"
    },
    {
      "anonymous": false,
      "inputs": [
        {
          "indexed": true,
          "internalType": "address",
          "name": "owner",
          "type": "address"
        },
        {
          "indexed": true,
          "internalType": "address",
          "name": "operator",
          "type": "address"
        },
        {
          "indexed": false,
          "internalType": "bool",
          "name": "approved",
          "type": "bool"
        }
      ],
      "name": "ApprovalForAll",
      "type": "event"
    },
    {
      "anonymous": false,
      "inputs": [
        {
          "indexed": false,
          "internalType": "uint256",
          "name": "_fromTokenId",
          "type": "uint256"
        },
        {
          "indexed": false,
          "internalType": "uint256",
          "name": "_toTokenId",
          "type": "uint256"
        }
      ],
      "name": "BatchMetadataUpdate",
      "type": "event"
    },
    {
      "anonymous": false,
      "inputs": [
        {
          "indexed": false,
          "internalType": "uint8",
          "name": "version",
          "type": "uint8"
        }
      ],
      "name": "Initialized",
      "type": "event"
    },
    {
      "anonymous": false,
      "inputs": [
        {
          "indexed": false,
          "internalType": "uint256",
          "name": "_tokenId",
          "type": "uint256"
        }
      ],
      "name": "MetadataUpdate",
      "type": "event"
    },
    {
      "anonymous": false,
      "inputs": [
        {
          "indexed": true,
          "internalType": "address",
          "name": "previousOwner",
          "type": "address"
        },
        {
          "indexed": true,
          "internalType": "address",
          "name": "newOwner",
          "type": "address"
        }
      ],
      "name": "OwnershipTransferred",
      "type": "event"
    },
    {
      "anonymous": false,
      "inputs": [
        {
          "indexed": true,
          "internalType": "address",
          "name": "from",
          "type": "address"
        },
        {
          "indexed": true,
          "internalType": "address",
          "name": "to",
          "type": "address"
        },
        {
          "indexed": true,
          "internalType": "uint256",
          "name": "tokenId",
          "type": "uint256"
        }
      ],
      "name": "Transfer",
      "type": "event"
    },
    {
      "anonymous": false,
      "inputs": [
        {
          "indexed": true,
          "internalType": "uint256",
          "name": "tokenId",
          "type": "uint256"
        },
        {
          "indexed": true,
          "internalType": "address",
          "name": "user",
          "type": "address"
        },
        {
          "indexed": false,
          "internalType": "uint64",
          "name": "expires",
          "type": "uint64"
        }
      ],
      "name": "UpdateRentNFT",
      "type": "event"
    },
    {
      "inputs": [
        {
          "internalType": "string",
          "name": "uuid",
          "type": "string"
        },
        {
          "internalType": "string",
          "name": "categoryName",
          "type": "string"
        }
      ],
      "name": "_tokenUri",
      "outputs": [
        {
          "internalType": "string",
          "name": "",
          "type": "string"
        }
      ],
      "stateMutability": "pure",
      "type": "function"
    },
    {
      "inputs": [
        {
          "internalType": "address",
          "name": "to",
          "type": "address"
        },
        {
          "internalType": "uint256",
          "name": "tokenId",
          "type": "uint256"
        }
      ],
      "name": "approve",
      "outputs": [],
      "stateMutability": "nonpayable",
      "type": "function"
    },
    {
      "inputs": [
        {
          "internalType": "address",
          "name": "owner",
          "type": "address"
        }
      ],
      "name": "balanceOf",
      "outputs": [
        {
          "internalType": "uint256",
          "name": "",
          "type": "uint256"
        }
      ],
      "stateMutability": "view",
      "type": "function"
    },
    {
      "inputs": [
        {
          "internalType": "uint256",
          "name": "tokenId",
          "type": "uint256"
        }
      ],
      "name": "getApproved",
      "outputs": [
        {
          "internalType": "address",
          "name": "",
          "type": "address"
        }
      ],
      "stateMutability": "view",
      "type": "function"
    },
    {
      "inputs": [
        {
          "internalType": "uint256",
          "name": "tokenId",
          "type": "uint256"
        }
      ],
      "name": "getNftRentInfo",
      "outputs": [
        {
          "components": [
            {
              "internalType": "uint256",
              "name": "tokenId",
              "type": "uint256"
            },
            {
              "internalType": "address",
              "name": "owner",
              "type": "address"
            },
            {
              "internalType": "address",
              "name": "user",
              "type": "address"
            },
            {
              "internalType": "uint64",
              "name": "expires",
              "type": "uint64"
            }
          ],
          "internalType": "struct RentInfo",
          "name": "",
          "type": "tuple"
        }
      ],
      "stateMutability": "view",
      "type": "function"
    },
    {
      "inputs": [],
      "name": "getOwnedToken",
      "outputs": [
        {
          "components": [
            {
              "internalType": "uint256",
              "name": "tokenId",
              "type": "uint256"
            },
            {
              "internalType": "string",
              "name": "uuid",
              "type": "string"
            },
            {
              "internalType": "uint256",
              "name": "mintedAt",
              "type": "uint256"
            },
            {
              "internalType": "uint256",
              "name": "mintingPrice",
              "type": "uint256"
            },
            {
              "internalType": "bool",
              "name": "isRentalAble",
              "type": "bool"
            },
            {
              "internalType": "uint256",
              "name": "rentId",
              "type": "uint256"
            },
            {
              "internalType": "uint256",
              "name": "category",
              "type": "uint256"
            }
          ],
          "internalType": "struct OwnedToken[]",
          "name": "",
          "type": "tuple[]"
        }
      ],
      "stateMutability": "view",
      "type": "function"
    },
    {
      "inputs": [
        {
          "internalType": "uint256",
          "name": "tokenId",
          "type": "uint256"
        }
      ],
      "name": "getOwnedTokenById",
      "outputs": [
        {
          "components": [
            {
              "internalType": "uint256",
              "name": "tokenId",
              "type": "uint256"
            },
            {
              "internalType": "string",
              "name": "uuid",
              "type": "string"
            },
            {
              "internalType": "uint256",
              "name": "mintedAt",
              "type": "uint256"
            },
            {
              "internalType": "uint256",
              "name": "mintingPrice",
              "type": "uint256"
            },
            {
              "internalType": "bool",
              "name": "isRentalAble",
              "type": "bool"
            },
            {
              "internalType": "uint256",
              "name": "rentId",
              "type": "uint256"
            },
            {
              "internalType": "uint256",
              "name": "category",
              "type": "uint256"
            }
          ],
          "internalType": "struct OwnedToken",
          "name": "",
          "type": "tuple"
        }
      ],
      "stateMutability": "view",
      "type": "function"
    },
    {
      "inputs": [
        {
          "internalType": "uint256",
          "name": "tokenId",
          "type": "uint256"
        }
      ],
      "name": "handleExpiredNFT",
      "outputs": [],
      "stateMutability": "nonpayable",
      "type": "function"
    },
    {
      "inputs": [
        {
          "internalType": "address",
          "name": "_adminAddress",
          "type": "address"
        }
      ],
      "name": "initialize",
      "outputs": [],
      "stateMutability": "nonpayable",
      "type": "function"
    },
    {
      "inputs": [
        {
          "internalType": "address",
          "name": "owner",
          "type": "address"
        },
        {
          "internalType": "address",
          "name": "operator",
          "type": "address"
        }
      ],
      "name": "isApprovedForAll",
      "outputs": [
        {
          "internalType": "bool",
          "name": "",
          "type": "bool"
        }
      ],
      "stateMutability": "view",
      "type": "function"
    },
    {
      "inputs": [
        {
          "components": [
            {
              "internalType": "string",
              "name": "uuid",
              "type": "string"
            },
            {
              "internalType": "uint256",
              "name": "price",
              "type": "uint256"
            },
            {
              "internalType": "bool",
              "name": "isRentalAble",
              "type": "bool"
            },
            {
              "internalType": "uint256",
              "name": "rentId",
              "type": "uint256"
            },
            {
              "internalType": "bool",
              "name": "isSold",
              "type": "bool"
            },
            {
              "internalType": "uint256",
              "name": "category",
              "type": "uint256"
            }
          ],
          "internalType": "struct ListPreMintNft",
          "name": "newNft",
          "type": "tuple"
        },
        {
          "internalType": "address",
          "name": "nftOwner",
          "type": "address"
        }
      ],
      "name": "mintToken",
      "outputs": [],
      "stateMutability": "nonpayable",
      "type": "function"
    },
    {
      "inputs": [],
      "name": "name",
      "outputs": [
        {
          "internalType": "string",
          "name": "",
          "type": "string"
        }
      ],
      "stateMutability": "view",
      "type": "function"
    },
    {
      "inputs": [],
      "name": "owner",
      "outputs": [
        {
          "internalType": "address",
          "name": "",
          "type": "address"
        }
      ],
      "stateMutability": "view",
      "type": "function"
    },
    {
      "inputs": [
        {
          "internalType": "uint256",
          "name": "tokenId",
          "type": "uint256"
        }
      ],
      "name": "ownerOf",
      "outputs": [
        {
          "internalType": "address",
          "name": "",
          "type": "address"
        }
      ],
      "stateMutability": "view",
      "type": "function"
    },
    {
      "inputs": [],
      "name": "renounceOwnership",
      "outputs": [],
      "stateMutability": "nonpayable",
      "type": "function"
    },
    {
      "inputs": [
        {
          "internalType": "uint256",
          "name": "tokenId",
          "type": "uint256"
        },
        {
          "internalType": "uint64",
          "name": "expires",
          "type": "uint64"
        }
      ],
      "name": "rentNft",
      "outputs": [],
      "stateMutability": "nonpayable",
      "type": "function"
    },
    {
      "inputs": [
        {
          "internalType": "address",
          "name": "from",
          "type": "address"
        },
        {
          "internalType": "address",
          "name": "to",
          "type": "address"
        },
        {
          "internalType": "uint256",
          "name": "tokenId",
          "type": "uint256"
        }
      ],
      "name": "safeTransferFrom",
      "outputs": [],
      "stateMutability": "nonpayable",
      "type": "function"
    },
    {
      "inputs": [
        {
          "internalType": "address",
          "name": "from",
          "type": "address"
        },
        {
          "internalType": "address",
          "name": "to",
          "type": "address"
        },
        {
          "internalType": "uint256",
          "name": "tokenId",
          "type": "uint256"
        },
        {
          "internalType": "bytes",
          "name": "data",
          "type": "bytes"
        }
      ],
      "name": "safeTransferFrom",
      "outputs": [],
      "stateMutability": "nonpayable",
      "type": "function"
    },
    {
      "inputs": [
        {
          "internalType": "address",
          "name": "operator",
          "type": "address"
        },
        {
          "internalType": "bool",
          "name": "approved",
          "type": "bool"
        }
      ],
      "name": "setApprovalForAll",
      "outputs": [],
      "stateMutability": "nonpayable",
      "type": "function"
    },
    {
      "inputs": [
        {
          "internalType": "contract Market",
          "name": "market",
          "type": "address"
        }
      ],
      "name": "setMarket",
      "outputs": [],
      "stateMutability": "nonpayable",
      "type": "function"
    },
    {
      "inputs": [
        {
          "internalType": "uint256",
          "name": "tokenId",
          "type": "uint256"
        },
        {
          "internalType": "address",
          "name": "owner",
          "type": "address"
        },
        {
          "internalType": "address",
          "name": "user",
          "type": "address"
        },
        {
          "internalType": "uint64",
          "name": "expires",
          "type": "uint64"
        }
      ],
      "name": "setTenant",
      "outputs": [
        {
          "internalType": "uint256",
          "name": "",
          "type": "uint256"
        }
      ],
      "stateMutability": "nonpayable",
      "type": "function"
    },
    {
      "inputs": [
        {
          "internalType": "uint256",
          "name": "_tokenId",
          "type": "uint256"
        },
        {
          "internalType": "string",
          "name": "_uri",
          "type": "string"
        }
      ],
      "name": "setTokenUri",
      "outputs": [],
      "stateMutability": "nonpayable",
      "type": "function"
    },
    {
      "inputs": [
        {
          "internalType": "bytes4",
          "name": "interfaceId",
          "type": "bytes4"
        }
      ],
      "name": "supportsInterface",
      "outputs": [
        {
          "internalType": "bool",
          "name": "",
          "type": "bool"
        }
      ],
      "stateMutability": "view",
      "type": "function"
    },
    {
      "inputs": [],
      "name": "symbol",
      "outputs": [
        {
          "internalType": "string",
          "name": "",
          "type": "string"
        }
      ],
      "stateMutability": "view",
      "type": "function"
    },
    {
      "inputs": [
        {
          "internalType": "uint256",
          "name": "index",
          "type": "uint256"
        }
      ],
      "name": "tokenByIndex",
      "outputs": [
        {
          "internalType": "uint256",
          "name": "",
          "type": "uint256"
        }
      ],
      "stateMutability": "view",
      "type": "function"
    },
    {
      "inputs": [
        {
          "internalType": "address",
          "name": "owner",
          "type": "address"
        },
        {
          "internalType": "uint256",
          "name": "index",
          "type": "uint256"
        }
      ],
      "name": "tokenOfOwnerByIndex",
      "outputs": [
        {
          "internalType": "uint256",
          "name": "",
          "type": "uint256"
        }
      ],
      "stateMutability": "view",
      "type": "function"
    },
    {
      "inputs": [
        {
          "internalType": "address",
          "name": "tokenOwner",
          "type": "address"
        },
        {
          "internalType": "address",
          "name": "newOwner",
          "type": "address"
        },
        {
          "internalType": "uint256",
          "name": "tokenId",
          "type": "uint256"
        }
      ],
      "name": "tokenTransfer",
      "outputs": [],
      "stateMutability": "nonpayable",
      "type": "function"
    },
    {
      "inputs": [
        {
          "internalType": "address",
          "name": "tokenOwner",
          "type": "address"
        },
        {
          "internalType": "uint256",
          "name": "tokenId",
          "type": "uint256"
        }
      ],
      "name": "tokenTransferToMarket",
      "outputs": [],
      "stateMutability": "nonpayable",
      "type": "function"
    },
    {
      "inputs": [
        {
          "internalType": "uint256",
          "name": "tokenId",
          "type": "uint256"
        }
      ],
      "name": "tokenURI",
      "outputs": [
        {
          "internalType": "string",
          "name": "",
          "type": "string"
        }
      ],
      "stateMutability": "view",
      "type": "function"
    },
    {
      "inputs": [],
      "name": "totalSupply",
      "outputs": [
        {
          "internalType": "uint256",
          "name": "",
          "type": "uint256"
        }
      ],
      "stateMutability": "view",
      "type": "function"
    },
    {
      "inputs": [
        {
          "internalType": "address",
          "name": "from",
          "type": "address"
        },
        {
          "internalType": "address",
          "name": "to",
          "type": "address"
        },
        {
          "internalType": "uint256",
          "name": "tokenId",
          "type": "uint256"
        }
      ],
      "name": "transferFrom",
      "outputs": [],
      "stateMutability": "nonpayable",
      "type": "function"
    },
    {
      "inputs": [
        {
          "internalType": "address",
          "name": "newOwner",
          "type": "address"
        }
      ],
      "name": "transferOwnership",
      "outputs": [],
      "stateMutability": "nonpayable",
      "type": "function"
    },
    {
      "inputs": [
        {
          "internalType": "uint256",
          "name": "tokenId",
          "type": "uint256"
        }
      ],
      "name": "userExpires",
      "outputs": [
        {
          "internalType": "uint256",
          "name": "",
          "type": "uint256"
        }
      ],
      "stateMutability": "view",
      "type": "function"
    },
    {
      "inputs": [
        {
          "internalType": "uint256",
          "name": "rentId",
          "type": "uint256"
        }
      ],
      "name": "userOf",
      "outputs": [
        {
          "internalType": "address",
          "name": "",
          "type": "address"
        }
      ],
      "stateMutability": "view",
      "type": "function"
    }
  ],
  "bytecode": "0x60806040523480156200001157600080fd5b506200001c62000022565b620000e3565b600054610100900460ff16156200008f5760405162461bcd60e51b815260206004820152602760248201527f496e697469616c697a61626c653a20636f6e747261637420697320696e697469604482015266616c697a696e6760c81b606482015260840160405180910390fd5b60005460ff90811614620000e1576000805460ff191660ff9081179091556040519081527f7f26b83ff96e1f2b6a682f133852f6798a09c465da95921460cefb38474024989060200160405180910390a15b565b6130cd80620000f36000396000f3fe608060405234801561001057600080fd5b50600436106101965760003560e01c806301ffc9a71461019b57806306fdde03146101c3578063081812fc146101d8578063095ea7b31461020357806315eaef6b1461021857806318160ddd1461022b5780631d9efca41461023d57806323b872dd146102505780632f745c5914610263578063391dc27e14610276578063403df3b91461028957806342842e0e146102e65780634f6ccce7146102f957806357f7789e1461030c5780636352211e1461031f5780636dcea85f1461033257806370a0823114610345578063715018a6146103585780638a521fb6146103605780638da5cb5b146103735780638fc88c481461037b57806395d89b411461038e578063a22cb46514610396578063a374c73a146103a9578063b88d4fde146103bc578063bc23f3cd146103cf578063c2f1f14a146103ef578063c4d66de814610402578063c87b56dd14610415578063d23ee2ba14610428578063e32169b61461043d578063e985e9c514610450578063f2fde38b14610463578063f9fda97714610476575b600080fd5b6101ae6101a936600461249c565b610489565b60405190151581526020015b60405180910390f35b6101cb61049a565b6040516101ba9190612509565b6101eb6101e636600461251c565b61052c565b6040516001600160a01b0390911681526020016101ba565b610216610211366004612555565b610553565b005b610216610226366004612581565b61066d565b6099545b6040519081526020016101ba565b61022f61024b3660046125d7565b6106a3565b61021661025e366004612581565b610759565b61022f610271366004612555565b61078a565b61021661028436600461251c565b610820565b61029c61029736600461251c565b6108b4565b60408051825181526020808401516001600160a01b03908116918301919091528383015116918101919091526060918201516001600160401b0316918101919091526080016101ba565b6102166102f4366004612581565b6109e9565b61022f61030736600461251c565b610a04565b61021661031a36600461273f565b610a97565b6101eb61032d36600461251c565b610b00565b610216610340366004612785565b610b34565b61022f610353366004612785565b610b5f565b610216610be5565b61021661036e366004612555565b610bf9565b6101eb610c2f565b61022f61038936600461251c565b610c3e565b6101cb610ce7565b6102166103a43660046127b2565b610cf6565b6102166103b73660046127e7565b610d01565b6102166103ca366004612817565b610d84565b6103e26103dd36600461251c565b610dbc565b6040516101ba91906128f5565b6101eb6103fd36600461251c565b610ebd565b610216610410366004612785565b610f14565b6101cb61042336600461251c565b6110a2565b6104306110ad565b6040516101ba9190612908565b6101cb61044b36600461296a565b6112b5565b6101ae61045e3660046129c3565b611377565b610216610471366004612785565b6113a5565b6102166104843660046129f1565b61141e565b60006104948261156e565b92915050565b6060606580546104a990612aa7565b80601f01602080910402602001604051908101604052809291908181526020018280546104d590612aa7565b80156105225780601f106104f757610100808354040283529160200191610522565b820191906000526020600020905b81548152906001019060200180831161050557829003601f168201915b5050505050905090565b600061053782611593565b506000908152606960205260409020546001600160a01b031690565b600061055e82610b00565b9050806001600160a01b0316836001600160a01b0316036105d05760405162461bcd60e51b815260206004820152602160248201527f4552433732313a20617070726f76616c20746f2063757272656e74206f776e656044820152603960f91b60648201526084015b60405180910390fd5b336001600160a01b03821614806105ec57506105ec8133611377565b61065e5760405162461bcd60e51b815260206004820152603d60248201527f4552433732313a20617070726f76652063616c6c6572206973206e6f7420746f60448201527f6b656e206f776e6572206f7220617070726f76656420666f7220616c6c00000060648201526084016105c7565b61066883836115b8565b505050565b610132546001600160a01b031633146106985760405162461bcd60e51b81526004016105c790612ae1565b6106688383836109e9565b60006106b461012e80546001019055565b60006106c061012e5490565b600081815261013060209081526040918290208981556001810180546001600160a01b0319166001600160a01b038b811691909117909155600282018054918a166001600160e01b03199092168217600160a01b6001600160401b038b1690810291909117909155935193845293945092918991600080516020613058833981519152910160405180910390a35090505b949350505050565b6107633382611626565b61077f5760405162461bcd60e51b81526004016105c790612b18565b610668838383611684565b600061079583610b5f565b82106107f75760405162461bcd60e51b815260206004820152602b60248201527f455243373231456e756d657261626c653a206f776e657220696e646578206f7560448201526a74206f6620626f756e647360a81b60648201526084016105c7565b506001600160a01b03919091166000908152609760209081526040808320938352929052205490565b600081815261013160209081526040808320600581018054855261013084528285208581556001810180546001600160a01b03191690556002810180546001600160e01b031916815591869055905492516001600160401b03600160a01b8504168152919490936001600160a01b0390931692909160008051602061305883398151915291015b60405180910390a3505050565b604080516080810182526000808252602080830182905282840182905260608301829052848252610131815283822060058101548352610130909152929020600483015491929160ff1661093f5760405162461bcd60e51b81526020600482015260126024820152714e4654204e6f742052656e74616c61626c6560701b60448201526064016105c7565b6000826005015411806109675750600281015442600160a01b9091046001600160401b031610155b6109835760405162461bcd60e51b81526004016105c790612b65565b50600501546000908152610130602090815260409182902082516080810184528154815260018201546001600160a01b039081169382019390935260029091015491821692810192909252600160a01b90046001600160401b0316606082015292915050565b61066883838360405180602001604052806000815250610d84565b6000610a0f60995490565b8210610a725760405162461bcd60e51b815260206004820152602c60248201527f455243373231456e756d657261626c653a20676c6f62616c20696e646578206f60448201526b7574206f6620626f756e647360a01b60648201526084016105c7565b60998281548110610a8557610a85612b90565b90600052602060002001549050919050565b61012f546001600160a01b03163314610af25760405162461bcd60e51b815260206004820181905260248201527f4f6e6c792041646d696e2043616e2043616c6c205468652046756e6374696f6e60448201526064016105c7565b610afc82826117e3565b5050565b600080610b0c83611898565b90506001600160a01b0381166104945760405162461bcd60e51b81526004016105c790612ba6565b610b3c6118b3565b61013280546001600160a01b0319166001600160a01b0392909216919091179055565b60006001600160a01b038216610bc95760405162461bcd60e51b815260206004820152602960248201527f4552433732313a2061646472657373207a65726f206973206e6f7420612076616044820152683634b21037bbb732b960b91b60648201526084016105c7565b506001600160a01b031660009081526068602052604090205490565b610bed6118b3565b610bf76000611912565b565b610132546001600160a01b03163314610c245760405162461bcd60e51b81526004016105c790612ae1565b610afc8233836109e9565b60fb546001600160a01b031690565b600081815261013160205260408120600481015460ff16610c965760405162461bcd60e51b81526020600482015260126024820152714e4654206e6f742052656e74616c61626c6560701b60448201526064016105c7565b6000816005015411610cba5760405162461bcd60e51b81526004016105c790612b65565b6005015460009081526101306020526040902060020154600160a01b90046001600160401b031692915050565b6060606680546104a990612aa7565b610afc338383611964565b6000610d0c83610b00565b60008481526101316020526040902060048101549192509060ff16610d675760405162461bcd60e51b81526020600482015260116024820152701391950810d85b89dd0810994814995b9d607a1b60448201526064016105c7565b6000610d75858433876106a3565b60059092019190915550505050565b610d8e3383611626565b610daa5760405162461bcd60e51b81526004016105c790612b18565b610db684848484611a26565b50505050565b610dc4612447565b61013160008381526020019081526020016000206040518060e001604052908160008201548152602001600182018054610dfd90612aa7565b80601f0160208091040260200160405190810160405280929190818152602001828054610e2990612aa7565b8015610e765780601f10610e4b57610100808354040283529160200191610e76565b820191906000526020600020905b815481529060010190602001808311610e5957829003601f168201915b50505091835250506002820154602082015260038201546040820152600482015460ff16151560608201526005820154608082015260069091015460a09091015292915050565b6000818152610130602052604081206002015442600160a01b9091046001600160401b031610610f075750600090815261013060205260409020600201546001600160a01b031690565b506000919050565b919050565b600054610100900460ff1615808015610f345750600054600160ff909116105b80610f555750610f4330611a59565b158015610f55575060005460ff166001145b610fb85760405162461bcd60e51b815260206004820152602e60248201527f496e697469616c697a61626c653a20636f6e747261637420697320616c72656160448201526d191e481a5b9a5d1a585b1a5e995960921b60648201526084016105c7565b6000805460ff191660011790558015610fdb576000805461ff0019166101001790555b6110246040518060400160405280600b81526020016a13595d185e1bdd0813919560aa1b815250604051806040016040528060048152602001631353919560e21b815250611a68565b61102c611a99565b611034611a99565b61103c611ac0565b61012f80546001600160a01b0319166001600160a01b0384161790558015610afc576000805461ff0019169055604051600181527f7f26b83ff96e1f2b6a682f133852f6798a09c465da95921460cefb3847402498906020015b60405180910390a15050565b606061049482611aef565b606060006110ba33610b5f565b90506000816001600160401b038111156110d6576110d661262a565b60405190808252806020026020018201604052801561110f57816020015b6110fc612447565b8152602001906001900390816110f45790505b5090508160000361115357604080516000808252602082019092529061114b565b611138612447565b8152602001906001900390816111305790505b509250505090565b6000805b6099548110156112ac573361116b82610b00565b6001600160a01b03160361129a5761013160008281526020019081526020016000206040518060e0016040529081600082015481526020016001820180546111b290612aa7565b80601f01602080910402602001604051908101604052809291908181526020018280546111de90612aa7565b801561122b5780601f106112005761010080835404028352916020019161122b565b820191906000526020600020905b81548152906001019060200180831161120e57829003601f168201915b50505091835250506002820154602082015260038201546040820152600482015460ff16151560608201526005820154608082015260069091015460a090910152835184908490811061128057611280612b90565b6020026020010181905250818061129690612bee565b9250505b806112a481612bee565b915050611157565b50909392505050565b60606000826040516020016112ca9190612c07565b60405160208183030381529060405290506000816040516020016112ee9190612c33565b604051602081830303815290604052905060008185604051602001611314929190612c58565b60405160208183030381529060405290506000816040516020016113389190612c87565b6040516020818303038152906040529050808760405160200161135c929190612c58565b60405160208183030381529060405294505050505092915050565b6001600160a01b039182166000908152606a6020908152604080832093909416825291909152205460ff1690565b6113ad6118b3565b6001600160a01b0381166114125760405162461bcd60e51b815260206004820152602660248201527f4f776e61626c653a206e6577206f776e657220697320746865207a65726f206160448201526564647265737360d01b60648201526084016105c7565b61141b81611912565b50565b610132546001600160a01b031633146114495760405162461bcd60e51b81526004016105c790612ae1565b600061145561012d5490565b6000818152610131602052604080822086516101325460a0890151935163183a4fcf60e21b8152600481019490945294955090936114ed926001600160a01b03909116906360e93f3c90602401600060405180830381865afa1580156114bf573d6000803e3d6000fd5b505050506040513d6000823e601f3d908101601f191682016040526114e79190810190612cb9565b516112b5565b838355855190915060018301906115049082612dcd565b504260028301556020850151600383015560a08501516006830155604085015160048301805460ff19169115801592909217905561154457600060058301555b61154e8484611bea565b61155883826117e3565b61156761012d80546001019055565b5050505050565b60006001600160e01b03198216632483248360e11b1480610494575061049482611c04565b61159c81611c29565b61141b5760405162461bcd60e51b81526004016105c790612ba6565b600081815260696020526040902080546001600160a01b0319166001600160a01b03841690811790915581906115ed82610b00565b6001600160a01b03167f8c5be1e5ebec7d5bd14f71427d1e84f3dd0314c0f7b2291e5b200ac8c7c3b92560405160405180910390a45050565b60008061163283610b00565b9050806001600160a01b0316846001600160a01b0316148061165957506116598185611377565b806107515750836001600160a01b03166116728461052c565b6001600160a01b031614949350505050565b826001600160a01b031661169782610b00565b6001600160a01b0316146116bd5760405162461bcd60e51b81526004016105c790612e8c565b6001600160a01b03821661171f5760405162461bcd60e51b8152602060048201526024808201527f4552433732313a207472616e7366657220746f20746865207a65726f206164646044820152637265737360e01b60648201526084016105c7565b61172c8383836001611c46565b826001600160a01b031661173f82610b00565b6001600160a01b0316146117655760405162461bcd60e51b81526004016105c790612e8c565b600081815260696020908152604080832080546001600160a01b03199081169091556001600160a01b03878116808652606885528386208054600019019055908716808652838620805460010190558686526067909452828520805490921684179091559051849360008051602061307883398151915291a4505050565b6117ec82611c29565b61184f5760405162461bcd60e51b815260206004820152602e60248201527f45524337323155524953746f726167653a2055524920736574206f66206e6f6e60448201526d32bc34b9ba32b73a103a37b5b2b760911b60648201526084016105c7565b600082815260c9602052604090206118678282612dcd565b506040518281527ff8e1a15aba9398e019f0b49df1a4fde98ee17ae345cb5f6b5e2c27f5033e8ce790602001611096565b6000908152606760205260409020546001600160a01b031690565b336118bc610c2f565b6001600160a01b031614610bf75760405162461bcd60e51b815260206004820181905260248201527f4f776e61626c653a2063616c6c6572206973206e6f7420746865206f776e657260448201526064016105c7565b60fb80546001600160a01b038381166001600160a01b0319831681179093556040519116919082907f8be0079c531659141344cd1fd0a4f28419497f9722a3daafe3b4186f6b6457e090600090a35050565b816001600160a01b0316836001600160a01b0316036119c15760405162461bcd60e51b815260206004820152601960248201527822a9219b99189d1030b8383937bb32903a379031b0b63632b960391b60448201526064016105c7565b6001600160a01b038381166000818152606a6020908152604080832094871680845294825291829020805460ff191686151590811790915591519182527f17307eab39ab6107e8899845ad3d59bd9653f200f220920489ca2b5937696c3191016108a7565b611a31848484611684565b611a3d84848484611c9a565b610db65760405162461bcd60e51b81526004016105c790612ed1565b6001600160a01b03163b151590565b600054610100900460ff16611a8f5760405162461bcd60e51b81526004016105c790612f23565b610afc8282611d9f565b600054610100900460ff16610bf75760405162461bcd60e51b81526004016105c790612f23565b600054610100900460ff16611ae75760405162461bcd60e51b81526004016105c790612f23565b610bf7611ddf565b6060611afa82611593565b600082815260c9602052604081208054611b1390612aa7565b80601f0160208091040260200160405190810160405280929190818152602001828054611b3f90612aa7565b8015611b8c5780601f10611b6157610100808354040283529160200191611b8c565b820191906000526020600020905b815481529060010190602001808311611b6f57829003601f168201915b505050505090506000611b9d611e0f565b90508051600003611baf575092915050565b815115611be1578082604051602001611bc9929190612c58565b60405160208183030381529060405292505050919050565b61075184611e2f565b610afc828260405180602001604052806000815250611e96565b60006001600160e01b0319821663780e9d6360e01b1480610494575061049482611ec9565b600080611c3583611898565b6001600160a01b0316141592915050565b611c5284848484611f19565b6000828152610131602052604090206005810154156115675760006001600160a01b0316611c838260050154610ebd565b6001600160a01b0316036115675761156783610820565b6000611cae846001600160a01b0316611a59565b15611d9757604051630a85bd0160e11b81526001600160a01b0385169063150b7a0290611ce5903390899088908890600401612f6e565b6020604051808303816000875af1925050508015611d20575060408051601f3d908101601f19168201909252611d1d91810190612fab565b60015b611d7d573d808015611d4e576040519150601f19603f3d011682016040523d82523d6000602084013e611d53565b606091505b508051600003611d755760405162461bcd60e51b81526004016105c790612ed1565b805181602001fd5b6001600160e01b031916630a85bd0160e11b149050610751565b506001610751565b600054610100900460ff16611dc65760405162461bcd60e51b81526004016105c790612f23565b6065611dd28382612dcd565b5060666106688282612dcd565b600054610100900460ff16611e065760405162461bcd60e51b81526004016105c790612f23565b610bf733611912565b606060405180606001604052806030815260200161302860309139905090565b6060611e3a82611593565b6000611e44611e0f565b90506000815111611e645760405180602001604052806000815250611e8f565b80611e6e84612046565b604051602001611e7f929190612c58565b6040516020818303038152906040525b9392505050565b611ea083836120d8565b611ead6000848484611c9a565b6106685760405162461bcd60e51b81526004016105c790612ed1565b60006001600160e01b031982166380ac58cd60e01b1480611efa57506001600160e01b03198216635b5e139f60e01b145b8061049457506301ffc9a760e01b6001600160e01b0319831614610494565b6001811115611f885760405162461bcd60e51b815260206004820152603560248201527f455243373231456e756d657261626c653a20636f6e7365637574697665207472604482015274185b9cd9995c9cc81b9bdd081cdd5c1c1bdc9d1959605a1b60648201526084016105c7565b816001600160a01b038516611fe457611fdf81609980546000838152609a60205260408120829055600182018355919091527f72a152ddfb8e864297c917af52ea6c1c68aead0fee1a62673fcc7e0c94979d000155565b612007565b836001600160a01b0316856001600160a01b0316146120075761200785826121e1565b6001600160a01b0384166120235761201e8161227e565b611567565b846001600160a01b0316846001600160a01b03161461156757611567848261232d565b6060600061205383612371565b60010190506000816001600160401b038111156120725761207261262a565b6040519080825280601f01601f19166020018201604052801561209c576020820181803683370190505b5090508181016020015b600019016f181899199a1a9b1b9c1cb0b131b232b360811b600a86061a8153600a85049450846120a657509392505050565b6001600160a01b03821661212e5760405162461bcd60e51b815260206004820181905260248201527f4552433732313a206d696e7420746f20746865207a65726f206164647265737360448201526064016105c7565b61213781611c29565b156121545760405162461bcd60e51b81526004016105c790612fc8565b612162600083836001611c46565b61216b81611c29565b156121885760405162461bcd60e51b81526004016105c790612fc8565b6001600160a01b038216600081815260686020908152604080832080546001019055848352606790915280822080546001600160a01b031916841790555183929190600080516020613078833981519152908290a45050565b600060016121ee84610b5f565b6121f89190612ffe565b60008381526098602052604090205490915080821461224b576001600160a01b03841660009081526097602090815260408083208584528252808320548484528184208190558352609890915290208190555b5060009182526098602090815260408084208490556001600160a01b039094168352609781528383209183525290812055565b60995460009061229090600190612ffe565b6000838152609a6020526040812054609980549394509092849081106122b8576122b8612b90565b9060005260206000200154905080609983815481106122d9576122d9612b90565b6000918252602080832090910192909255828152609a9091526040808220849055858252812055609980548061231157612311613011565b6001900381819060005260206000200160009055905550505050565b600061233883610b5f565b6001600160a01b039093166000908152609760209081526040808320868452825280832085905593825260989052919091209190915550565b60008072184f03e93ff9f4daa797ed6e38ed64bf6a1f0160401b83106123b05772184f03e93ff9f4daa797ed6e38ed64bf6a1f0160401b830492506040015b6904ee2d6d415b85acef8160201b83106123da576904ee2d6d415b85acef8160201b830492506020015b662386f26fc1000083106123f857662386f26fc10000830492506010015b6305f5e1008310612410576305f5e100830492506008015b612710831061242457612710830492506004015b60648310612436576064830492506002015b600a83106104945760010192915050565b6040518060e001604052806000815260200160608152602001600081526020016000815260200160001515815260200160008152602001600081525090565b6001600160e01b03198116811461141b57600080fd5b6000602082840312156124ae57600080fd5b8135611e8f81612486565b60005b838110156124d45781810151838201526020016124bc565b50506000910152565b600081518084526124f58160208601602086016124b9565b601f01601f19169290920160200192915050565b602081526000611e8f60208301846124dd565b60006020828403121561252e57600080fd5b5035919050565b6001600160a01b038116811461141b57600080fd5b8035610f0f81612535565b6000806040838503121561256857600080fd5b823561257381612535565b946020939093013593505050565b60008060006060848603121561259657600080fd5b83356125a181612535565b925060208401356125b181612535565b929592945050506040919091013590565b6001600160401b038116811461141b57600080fd5b600080600080608085870312156125ed57600080fd5b8435935060208501356125ff81612535565b9250604085013561260f81612535565b9150606085013561261f816125c2565b939692955090935050565b634e487b7160e01b600052604160045260246000fd5b60405160c081016001600160401b03811182821017156126625761266261262a565b60405290565b604051606081016001600160401b03811182821017156126625761266261262a565b604051601f8201601f191681016001600160401b03811182821017156126b2576126b261262a565b604052919050565b60006001600160401b038211156126d3576126d361262a565b50601f01601f191660200190565b60006126f46126ef846126ba565b61268a565b905082815283838301111561270857600080fd5b828260208301376000602084830101529392505050565b600082601f83011261273057600080fd5b611e8f838335602085016126e1565b6000806040838503121561275257600080fd5b8235915060208301356001600160401b0381111561276f57600080fd5b61277b8582860161271f565b9150509250929050565b60006020828403121561279757600080fd5b8135611e8f81612535565b80358015158114610f0f57600080fd5b600080604083850312156127c557600080fd5b82356127d081612535565b91506127de602084016127a2565b90509250929050565b600080604083850312156127fa57600080fd5b82359150602083013561280c816125c2565b809150509250929050565b6000806000806080858703121561282d57600080fd5b843561283881612535565b9350602085013561284881612535565b92506040850135915060608501356001600160401b0381111561286a57600080fd5b8501601f8101871361287b57600080fd5b61288a878235602084016126e1565b91505092959194509250565b805182526000602082015160e060208501526128b560e08501826124dd565b9050604083015160408501526060830151606085015260808301511515608085015260a083015160a085015260c083015160c08501528091505092915050565b602081526000611e8f6020830184612896565b6000602080830181845280855180835260408601915060408160051b870101925083870160005b8281101561295d57603f1988860301845261294b858351612896565b9450928501929085019060010161292f565b5092979650505050505050565b6000806040838503121561297d57600080fd5b82356001600160401b038082111561299457600080fd5b6129a08683870161271f565b935060208501359150808211156129b657600080fd5b5061277b8582860161271f565b600080604083850312156129d657600080fd5b82356129e181612535565b9150602083013561280c81612535565b60008060408385031215612a0457600080fd5b82356001600160401b0380821115612a1b57600080fd5b9084019060c08287031215612a2f57600080fd5b612a37612640565b823582811115612a4657600080fd5b612a528882860161271f565b82525060208301356020820152612a6b604084016127a2565b604082015260608301356060820152612a86608084016127a2565b608082015260a083013560a08201528094505050506127de6020840161254a565b600181811c90821680612abb57607f821691505b602082108103612adb57634e487b7160e01b600052602260045260246000fd5b50919050565b6020808252601d908201527f4f6e6c79204d61726b657420436f6e74726163742063616e2063616c6c000000604082015260600190565b6020808252602d908201527f4552433732313a2063616c6c6572206973206e6f7420746f6b656e206f776e6560408201526c1c881bdc88185c1c1c9bdd9959609a1b606082015260800190565b60208082526011908201527013919508139bdd081a5b8814995b9d185b607a1b604082015260600190565b634e487b7160e01b600052603260045260246000fd5b602080825260189082015277115490cdcc8c4e881a5b9d985b1a59081d1bdad95b88125160421b604082015260600190565b634e487b7160e01b600052601160045260246000fd5b600060018201612c0057612c00612bd8565b5060010190565b636765745f60e01b815260008251612c268160048501602087016124b9565b9190910160040192915050565b60008251612c458184602087016124b9565b603f60f81b920191825250600101919050565b60008351612c6a8184602088016124b9565b835190830190612c7e8183602088016124b9565b01949350505050565b60008251612c998184602087016124b9565b6249643d60e81b920191825250600301919050565b8051610f0f816125c2565b60006020808385031215612ccc57600080fd5b82516001600160401b0380821115612ce357600080fd5b9084019060608287031215612cf757600080fd5b612cff612668565b825182811115612d0e57600080fd5b83019150601f82018713612d2157600080fd5b8151612d2f6126ef826126ba565b8181528886838601011115612d4357600080fd5b612d52828783018887016124b9565b825250612d60838501612cae565b84820152612d7060408401612cae565b60408201529695505050505050565b601f82111561066857600081815260208120601f850160051c81016020861015612da65750805b601f850160051c820191505b81811015612dc557828155600101612db2565b505050505050565b81516001600160401b03811115612de657612de661262a565b612dfa81612df48454612aa7565b84612d7f565b602080601f831160018114612e2f5760008415612e175750858301515b600019600386901b1c1916600185901b178555612dc5565b600085815260208120601f198616915b82811015612e5e57888601518255948401946001909101908401612e3f565b5085821015612e7c5787850151600019600388901b60f8161c191681555b5050505050600190811b01905550565b60208082526025908201527f4552433732313a207472616e736665722066726f6d20696e636f72726563742060408201526437bbb732b960d91b606082015260800190565b60208082526032908201527f4552433732313a207472616e7366657220746f206e6f6e20455243373231526560408201527131b2b4bb32b91034b6b83632b6b2b73a32b960711b606082015260800190565b6020808252602b908201527f496e697469616c697a61626c653a20636f6e7472616374206973206e6f74206960408201526a6e697469616c697a696e6760a81b606082015260800190565b6001600160a01b0385811682528416602082015260408101839052608060608201819052600090612fa1908301846124dd565b9695505050505050565b600060208284031215612fbd57600080fd5b8151611e8f81612486565b6020808252601c908201527b115490cdcc8c4e881d1bdad95b88185b1c9958591e481b5a5b9d195960221b604082015260600190565b8181038181111561049457610494612bd8565b634e487b7160e01b600052603160045260246000fdfe68747470733a2f2f6170692e6f72616e676567616d657370726f64756374696f6e2e69642f6d657461786f742f76312ffce234c96b63d47e71be5f423a0429241552c3aa5dfc7c623d9efbff0266abadddf252ad1be2c89b69c2b068fc378daa952ba7f163c4a11628f55a4df523b3efa2646970667358221220fcbcbfe16f978ef5403056c822266b29a4734ac81d20f8592db97f53e40a460264736f6c63430008110033",
  "linkReferences": {},
  "deployedLinkReferences": {}
}